:100000000C948E000C94B6000C94B6000C94B600C0
:100010000C9473170C94B6000C94B6000C94A115B4
:100020000C94B6000C94B6000C94B6000C94B60078
:100030000C94B6000C94B6000C94B6000C94B60068
:100040000C94A0160C94B6000C94B6000C94B60058
:100050000C94B6000C94B6000C94B6000C94B60048
:100060000C94CB170C94B600082019241C241F24D0
:1000700022243824352438243B2412261526182619
:1000800030265B2685266B206B206B206B20A226FA
:10009000A726AC26B726C626CB26D42627272A276E
:1000A0003027332736273927CC25CC25CC25CC251E
:1000B0003C273F274227452748274B274E2700004C
:1000C0000000240027002A00000000002300260072
:1000D00029000000000800020100000304070000DE
:1000E000000000000000010204081020408001020E
:1000F0000408102001020408102000000000250060
:1001000028002B0004040404040404040202020274
:1001100002020303030303030200612811241FBE2C
:10012000CFEFD8E0DEBFCDBF14E0A0E0B1E0ECE45B
:10013000F4E502C005900D92AC32B107D9F725E085
:10014000ACE2B4E001C01D92A93DB207E1F710E0B6
:10015000CEE8D0E004C02197FE010E94D329CD381B
:10016000D107C9F70E94041E0C94242A0C940000A5
:10017000BF92CF92DF92EF92FF920F931F93CF9394
:10018000DF931F92CDB7DEB78C01B12C6B01770FD7
:10019000EE08FF08B41691F0C80149830E94B01A16
:1001A000C701B6010E945A1685E00E947615C70164
:1001B000B6010E945A16B3944981ECCF0F90DF919B
:1001C000CF911F910F91FF90EF90DF90CF90BF9054
:1001D0000895EF92FF920F931F93CF93C82F8B0137
:1001E00021E18202C00111249C01245D3B4F790171
:1001F000B901C8010E94042A892BE9F1EC2FC4300F
:1002000008F0E3E080919805E81710F0EFEFE80FB1
:10021000F0E0EB57FA4F6489606885E895E00E944A
:1002200070170115110569F0F80101900020E9F738
:100230003197AF01401B510BB80185E895E00E9452
:10024000E613B801C7010E940D2AF80101900020B1
:10025000E9F73197CE2FC01BC03168F4E0918505D6
:10026000F09186050190F081E02D60E285E895E04F
:100270000995CF5FF1CFCF911F910F91FF90EF9034
:1002800008954F925F926F927F928F929F92AF925A
:10029000BF92CF92DF92EF92FF9281E10E941D15F3
:1002A000892B19F481E080935604809156048823A9
:1002B00051F081E10E941D15892B29F080919E0546
:1002C000823308F48AC084E00E941D15892B19F43A
:1002D00081E08093550480915504882351F084E097
:1002E0000E941D15892B29F080919E05823008F00F
:1002F0007AC08091C005833010F18091CA058823AF
:1003000029F08091CA0581110BC073C0E0910501ED
:10031000F091060180810E941D15892B31F0F1CFEB
:100320008091BE04882309F464C00E9494166093EF
:10033000A1047093A2048093A3049093A404209139
:100340009E0530E040E050E060EB74E080E090E03B
:100350000E948E2969017A01409051045090520404
:10036000609053047090540441145104610471046A
:1003700009F06FC10E9494168090A5049090A60485
:10038000A090A704B090A804DC01CB0188199909BA
:10039000AA09BB098C159D05AE05BF0598F10E9401
:1003A00094168090A1049090A204A090A304B09011
:1003B000A4049B01AC01281939094A095B094901C8
:1003C0005A01A3E0B0E0A70196010E947B2986169E
:1003D0009706A806B906B0F03CC1109256048F5F8C
:1003E00080939E0570CF10925504815080939E0596
:1003F00080CF1092A1041092A2041092A304109234
:10040000A4049DCF61E086E00E9446158091A80576
:100410009091A9050E94B01A81E0809350048091C8
:10042000BF049091C004A091C104B091C204892B73
:100430008A2B8B2B09F07EC080915104909152043D
:10044000A0915304B0915404892B8A2B8B2B09F073
:100450004CC00E9494168090A5049090A604A09091
:10046000A704B090A804DC01CB0188199909AA0956
:10047000BB098C159D05AE05BF05C8F48091CA0562
:10048000882329F08091CA0581110CC010C0E09129
:100490000201F091030180810E941D15892B09F052
:1004A000E5C1F0CF8091C304882309F4DFC10E9425
:1004B00094168090A1049090A204A090A304B09000
:1004C000A4049B01AC01281939094A095B094901B7
:1004D0005A01A3E0B0E0A70196010E947B2986168D
:1004E0009706A806B90630F50EC08091CA0581119D
:1004F0000DC2E0910201F091030180810E941D155F
:10050000892B09F403C28091CA0581110AC0E091C8
:100510000501F091060180810E941D15892B09F0CB
:10052000B0C18091CA05882329F08091BE04882338
:1005300009F4A7C12091CA058091BF049091C0041D
:10054000A091C104B091C204211124C0892B8A2B2F
:100550008B2B09F4A1C10E949416C090BF04D090C7
:10056000C004E090C104F090C204DC01CB018C19FE
:100570009D09AE09BF090697A105B10508F48CC114
:10058000E0910201F091030180810E941D15892BE9
:1005900049F082C1892B8A2B8B2B99F08091C3045F
:1005A000882331F081E080934F0410924E0409C0FB
:1005B0008091BE04882329F081E080934E0410923C
:1005C0004F0480919C048111ABC180919B048823CE
:1005D000E9F080919E054AE064E774E090E00E94B3
:1005E000E02862E471E083E694E00E940D2A64E76B
:1005F00074E083E694E00E94F9296CE471E083E6FC
:1006000094E00E94F92963E674E014C080919E048E
:10061000882319F061E571E00DC08091A0048A3053
:100620001CF060E671E006C010927F0410927E0418
:1006300065EC73E081E0FF90EF90DF90CF90BF908A
:10064000AF909F908F907F906F905F904F900C94A1
:10065000E90060E086E00E94461585E00E9476157C
:1006600045284628472851F40E9494166093510467
:100670007093520480935304909354040E949416F0
:100680008090510490905204A0905304B090540470
:100690002B013C01481859086A087B08A091040105
:1006A000B0E0A70196010E947B29641575058605B7
:1006B000970508F0B4CE4091A5045091A60460912E
:1006C000A7047091A8048091A1049091A204A09124
:1006D000A304B091A404481759076A077B07E0F404
:1006E00080914F04811144C08091CA05882329F06C
:1006F0008091CA0581110BC04BC0E0910201F091BD
:10070000030180810E941D15892B91F1F1CF9091F9
:10071000C30491112DC03CC080914E04811151C081
:100720008091CA05882329F08091CA0581110CC0E7
:100730000FC0E0910501F091060180810E941D1516
:10074000892B09F43EC0F0CF9091BE04911139C0BD
:1007500090914F0491110CC0811157C0E09102019A
:10076000F091030180810E941D15892B09F04DC075
:100770000E9494166093A5047093A6048093A70426
:100780009093A80481E080939B0410924F0428C0AA
:1007900090914E04911115C0882329F08091CA05CB
:1007A00081110BC03AC0E0910501F09106018081F2
:1007B0000E941D15892B91F704C08091BE048823E7
:1007C00061F10E9494166093A1047093A204809337
:1007D000A3049093A40481E080939B0410924E04A0
:1007E000809350048093040110925104109252049B
:1007F00010925304109254041092BF041092C0043B
:100800001092C1041092C2040ACE8091CA058823B6
:1008100021F08091C3048111ABCF8091C905882359
:1008200019F083E08093040181E080939B0480931E
:1008300050040E9494169B01AC01281939094A09F9
:100840005B0949015A01A0910401B0E0A70196019A
:100850000E947B29681579058A059B0508F0DFCD84
:1008600010929B041092500481E0BCCF0E94941619
:100870006093BF047093C0048093C1049093C2043A
:1008800016CE0E9494166093BF047093C0048093A8
:10089000C1049093C2044ECE8091510490915204B1
:1008A000A0915304B0915404892B8A2B8B2B09F40B
:1008B00088CE8091BF049091C004A091C104B091F2
:1008C000C204892B8A2B8B2B09F47BCE0E949416B1
:1008D000C090BF04D090C004E090C104F090C20466
:1008E000DC01CB018C199D09AE09BF094097A10518
:1008F000B10508F466CEE0910501F0910601808112
:100900000E941D15892B09F457CE5BCE8091CA0534
:10091000882309F40FCE8091C30481110BCEF3CD4F
:10092000FF90EF90DF90CF90BF90AF909F908F900F
:100930007F906F905F904F9008950F931F93CF9388
:10094000DF9381E1E3E6F4E0DF011D928A95E9F7A8
:100950008AE0E4E7F4E0DF011D928A95E9F720914F
:100960009E0480918E0490918F04A0919004B09188
:100970009104211104C02091AB042830B1F40091FE
:10098000940410919504012E000C220B330BBC0132
:10099000CD01600F711F821F931F2AE044E754E0CE
:1009A0000E94FA2865EC73E014C0BC01CD016E5CB6
:1009B0007F4F8F4F9F4F2AE044E754E00E94FA2870
:1009C0008091B405811103C061E771E002C064E762
:1009D00071E083E694E00E940D2AE4E7F4E00190E0
:1009E0000020E9F73197E457F440EF01DD278E014D
:1009F00006501109A80164E774E083E694E00E94C0
:100A0000142A61E473E083E694E00E94F929B801B6
:100A10006C587B4F43E050E083E694E00E94142A38
:100A200061E473E083E694E00E94F92980919E04DA
:100A3000BE01635071096C587B4F811104C08091D5
:100A4000AB04883019F443E050E002C041E050E0CC
:100A500083E694E00E94142A80919A04813059F030
:100A600038F0823059F0833079F46CE771E008C0D7
:100A70006BE872E005C06BE972E002C067E771E005
:100A800083E694E00E94F9298091A904882339F033
:100A900080919C04811103C061E871E006C08091DF
:100AA000B505882331F065E871E083E694E00E94A3
:100AB000F9291092730463E674E080E0DF91CF912E
:100AC0001F910F910C94E90090919F0481E0892778
:100AD00080939F04811108C010927F0410927E04BD
:100AE00010928104109280040E94C30B81E08093D5
:100AF0000E018091B50581111092B5050C949D04ED
:100B00008F929F92AF92BF92CF92DF92EF92FF921D
:100B10000F931F9310929C0440918E0450918F0468
:100B20006091900470919104DB01CA01805C9F4C3C
:100B3000AA46B109813E9349A440B10518F081E06D
:100B400080939C0480919D04811104C080919C0439
:100B5000811164C0A0919A04209180043091810495
:100B60008091940490919504E0916004F091610467
:100B7000A0FF2BC044515A4E68447F4F6901330F88
:100B8000EE08FF084C0D5D1D6E1D7F1D092E000C2B
:100B9000AA0BBB0B840F951FA61FB71F6F01FF0F7A
:100BA000EE08FF088C199D09AE09BF09C0909F058A
:100BB000D090A0050D2C000CEE08FF08BC01CD0163
:100BC0006C197D098E099F0927C0092E000CAA0BFC
:100BD000BB0B1CEEC12E15E1D12E17EBE12EF12C33
:100BE000C81AD90AEA0AFB0A4F01FF0FAA08BB0874
:100BF000C901330FAA0BBB0B880D991DAA1DBB1D84
:100C0000480F591F6A1F7B1F97018601041B150B94
:100C1000260B370BC901B8010E945F1D1F910F9170
:100C2000FF90EF90DF90CF90BF90AF909F908F900C
:100C30000C949D04CF930E94BA1C2091AB042230E7
:100C4000A9F020919A0420FF03C02091A40502C0BE
:100C50002091A305269530E021503109309383047B
:100C600020938204909393048093920420919204A1
:100C700030919304821B930B62E370E00E94BF29C2
:100C80008091820490918304680F791F63707727A5
:100C90006F5F7F4FC62FCC0FC093570481E10E9436
:100CA0001D15892BD1F41092AB0480919A0480FF1A
:100CB00003C0C093A40502C0C093A30542E062E351
:100CC00070E088E592E00E94B80060E671E081E0A3
:100CD0000E94E900CF910C94C30B82E08093AB0497
:100CE0006C2F6695615060931C010E948005809175
:100CF00057044AE064E774E090E00E94E02869E865
:100D000071E083E694E00E940D2A64E774E083E6D4
:100D100094E00E94F92966E971E083E694E00E947C
:100D2000F92963E674E081E0CF910C94E90086959F
:100D3000815080931C010E9480050E948005909143
:100D4000B40580919A04911103C08093B20508956F
:100D50008093B30508959091B40540918E0450910D
:100D60008F0460919004709191048091B50599234E
:100D7000F9F01092B4054093840450938504609375
:100D8000860470938704409188045091890460918F
:100D90008A0470918B0440938E0450938F04609367
:100DA000900470939104811124C08091B2051FC0FA
:100DB00091E09093B4054093880450938904609324
:100DC0008A0470938B04409184045091850460914F
:100DD00086047091870440938E0450938F0460932F
:100DE000900470939104811104C08091B3058093A5
:100DF0009A0480919A0480FF03C08091A40502C0E8
:100E00008091A3050E9497068091A90481110DC0CD
:100E100080919A04823048F08091A8059091A905AC
:100E2000909361048093600404C010926104109256
:100E300060040C94C30BCF92DF92EF92FF928091EB
:100E4000500481113DC08091CA05882329F080910A
:100E5000CA05811107C00AC08FE00E941D15892BA9
:100E6000D1F0F5CF9091C304911115C09091C005B8
:100E7000992331F1882329F08091CA05811107C097
:100E80001FC083E00E941D15892B29F0F5CF8091AA
:100E9000BE048823A9F081E0809350048091A505C9
:100EA000882329F080919A04826080939A0480912B
:100EB000C0058111A0C08091A904882309F4F2C063
:100EC00080915004882349F10E9494162091BE0518
:100ED0003091BF05DC01CB01820F931FA11DB11D15
:100EE0008093960490939704A0939804B0939904E8
:100EF0008091CA05882329F08091CA05811108C014
:100F00000CC08FE00E941D15892B09F041C1F4CF60
:100F10008091C304882309F43BC180919B04811113
:100F20003FC0C0909604D0909704E0909804F09051
:100F30009904C114D104E104F10491F18091A90450
:100F4000882371F10E949416C616D706E806F906A2
:100F500038F58091A505882319F11092A904109203
:100F6000960410929704109298041092990480911C
:100F7000A8059091A90590936104809360040E9454
:100F8000C30B8091B50581110E94AB0660E087E03C
:100F90000E9446156AE070E080E090E00E945A16D8
:100FA0008091C00581110BC180915004882391F07C
:100FB00080919A0481FF0EC061E086E00E94461590
:100FC0008091A8059091A905FF90EF90DF90CF90B8
:100FD0000C94B01A84E00E941D15019709F0EFC02F
:100FE00060E086E00E94461585E0FF90EF90DF907C
:100FF000CF900C94761590919A0491FF5CCF91E07C
:1010000090939B041092BF041092C0041092C104EC
:101010001092C20480FF09C081E091E09093060124
:101020008093050180E091E008C080E091E090931A
:1010300006018093050181E091E090930301809384
:1010400002018091CA05882329F08091CA05811187
:101050000CC00FC0E0910201F091030180810E9459
:101060001D15892B09F47EC0F0CF8091C304811136
:1010700079C08091CA05882329F08091CA05811121
:101080000CC019CFE0910501F091060180810E940A
:101090001D15892B09F471C0F0CF8091BE04811118
:1010A0006CC009CF8091A505882309F409CF60E0C1
:1010B00070E0CB010E945F1D61E087E00E94461551
:1010C00081E08093A9049091B40580919A049111D4
:1010D00003C08093B20502C08093B30510927F04D1
:1010E00010927E0410928104109280041092610488
:1010F0001092600461E470E080E090E00E945A1673
:101100008091B505882319F00E94AB0602C00E94A9
:10111000C30B8091A5049091A604A091A704B0915F
:10112000A804885B9F4FAF4FBF4F8093A504909357
:10113000A604A093A704B093A8048091A104909161
:10114000A204A091A304B091A404885B9F4FAF4F69
:10115000BF4F8093A1049093A204A093A304B093E3
:10116000A404AECE0E9494166093A5047093A604C6
:101170008093A7049093A8047CCF0E949416609358
:10118000A1047093A2048093A3049093A40493CE2B
:10119000109250040E9494162091BE053091BF0514
:1011A000DC01CB01820F931FA11DB11D809396041A
:1011B00090939704A0939804B0939904AECEFF90B7
:1011C000EF90DF90CF9008958091960490919704CE
:1011D000A0919804B0919904892B8A2B8B2B21F034
:1011E0008091A50581116CC08EE00E941D15892B90
:1011F000B1F18091A904811132C060E070E0CB01AF
:101200000E945F1D81E08093A90410927F041092D8
:101210007E04109281041092800410926104109256
:1012200060048091A505882359F080919A048D7FF0
:1012300080939A049091B40591111BC08093B205DC
:1012400061E470E080E090E00E945A160E94C30BB7
:101250000E949D048091B50581110E94AB068EE02D
:101260000E941D15892B61F58091A904811104C08C
:1012700008958093B305E4CF62E370E080E090E0EE
:101280000E945A168EE00E941D15892BC9F41092F7
:10129000A9040E9480050E949D048091B5058111DA
:1012A0000E94AB0680919A0481FF0AC08091A80534
:1012B0009091A90590936104809360040C94C30BF2
:1012C00008950F931F930E94BA1C2091AB04409184
:1012D0009A042130C9F0413029F420919F053091C2
:1012E000A00504C02091A1053091A205309383048C
:1012F000209382042091820430918304281B390BAF
:10130000309393042093920420919204309193049B
:101310004130A1F4AC01420F531F413167E256073F
:1013200014F040E157E2403F68ED560714F440EFF7
:1013300058ED5093A00540939F0513C0AC01420F98
:10134000531F413167E2560714F040E157E2403F36
:1013500068ED560714F440EF58ED5093A205409302
:10136000A1058530910534F4403F584D79F02A505D
:10137000310908C08D3F93404CF04031574231F065
:10138000265F3F4F309393042093920481E10E94A3
:101390001D15892B49F08091AA048823B9F080E1BA
:1013A0000E941D15892B91F01092AB0442E062E37C
:1013B00070E088E592E00E94B80060E671E081E0AC
:1013C0000E94E9001F910F910C94C30B81E0809360
:1013D000AB0480919A048130D1F40E9480054AE0E8
:1013E00064E774E080919F059091A0050E94E02839
:1013F00069E971E083E694E00E940D2A64E774E0F5
:1014000083E694E00E94F92961EA71E04DC0A09161
:10141000A105B091A20524E630E00E94D929DC01A3
:10142000CB0180549F48A84DBB4C80931D019093E5
:101430001E01A0931F01B093200100918E04109112
:101440008F0420919004309191048CEE95E1A7EBEC
:10145000B0E0BC01CD01601B710B820B930B0E94AD
:101460005F1DA091A105B091A20524E630E00E9485
:10147000D9292BE633E040E050E00E945C29CA0104
:10148000B9012AE044E754E00E94EB2865EA71E0E4
:1014900083E694E00E940D2A64E774E083E694E01A
:1014A0000E94F9296BEA71E083E694E00E94F92931
:1014B00063E674E081E01F910F910C94E900CF93F3
:1014C000C62F91E090934E0590E690937005109290
:1014D0004F0510927105682F89E795E00E94E81486
:1014E0006C2F89E795E00E94E814CF910C94D31CEF
:1014F00081E08093C40408950F931F9360E082E01D
:101500000E9446158091D60490E049962091CA0524
:10151000821B91090E944F168FE00E941D15892B96
:1015200021F10E9494166093D1047093D2048093A9
:10153000D3049093D4048091C304811139C00E94D4
:1015400094160091CD041091CE042091CF043091D7
:10155000D004DC01CB01801B910BA20BB30B0297D3
:10156000A105B10508F09FC023C00E9494166093A6
:10157000CD047093CE048093CF049093D0048091D7
:10158000C3048823A9F00E9494160091D1041091FD
:10159000D2042091D3043091D404DC01CB01801B10
:1015A000910BA20BB30B0B97A105B10508F087C0F7
:1015B00061E082E00E94461583EC90E00197F1F72C
:1015C00060E082E00E9446158091D50490E0499643
:1015D0002091CA05821B91090E944F1683E00E9448
:1015E0001D15892B21F10E9494166093C9047093F4
:1015F000CA048093CB049093CC048091BE048111E3
:1016000038C00E9494160091C5041091C604209120
:10161000C7043091C804DC01CB01801B910BA20BE5
:10162000B30B0297A105B10508F04CC022C00E947F
:1016300094166093C5047093C6048093C704909376
:10164000C8048091BE048823A1F00E9494160091E2
:10165000C9041091CA042091CB043091CC04DC0160
:10166000CB01801B910BA20BB30B0B97A105B1050E
:10167000A8F561E082E00E94461583EC90E00197B6
:10168000F1F78091C005823011F0843051F59091CE
:10169000BE048091C304892798279093BE048927AC
:1016A0008093C3041EC081E08093C3041092BF04E2
:1016B0001092C0041092C1041092C20479CF10920B
:1016C000C30476CF81E08093BE041092BF041092D1
:1016D000C0041092C1041092C204CBCF1092BE0479
:1016E000C8CF1F910F91089566E273E080E00E94D9
:1016F000E90067E373E081E00E94E9000E94851A37
:1017000068EE73E080E090E00C945A16CF92DF927E
:10171000EF92FF92CF93C4E6C12CD12C7601809139
:10172000C404882339F01092C40480918C049091F1
:101730008D0423C00E94BA1C092E000CAA0BBB0BFF
:10174000C80ED91EEA1EFB1EC15049F7C701B601DB
:101750006B5F7F4F8F4F9F4F2AE030E040E050E0BB
:101760000E948E29A0E1B7E20E947B2926EF37E292
:1017700040E050E00E948E29C901CF91FF90EF9088
:10178000DF90CF9008950E9480050E94860B2091E3
:10179000A6053091A705DC010E94D9292AE030E096
:1017A00040E050E00E948E2980918E0490918F0439
:1017B000A0919004B0919104821B930BA40BB50BE4
:1017C00080930A0190930B01A0930C01B0930D013B
:1017D0000895CF92DF92EF92FF920E94860B2091A4
:1017E0008C0430918D04821B930B97FF03C091955D
:1017F0008195910909970CF08AC08EE00E941D1511
:10180000892B21F080919D04811181C081E10E948A
:101810001D15892B09F47BC08091CA05882329F006
:101820008091CA05811108C00BC08FE00E941D1570
:10183000892B09F46CC0F4CF8091C304811167C077
:1018400084E00E941D15892B09F461C0C0909604A4
:10185000D0909704E0909804F09099040E94941618
:10186000C616D706E806F90608F067C08091AB04F3
:101870008530B1F58091BA059091BB05C0908E047A
:10188000D0908F04E0909004F0909104C80ED91E7F
:10189000E11CF11CC0928E04D0928F04E09290045F
:1018A000F09291042091B8053091B905A8EEB3E00B
:1018B0000E94B0296C157D058E059F0570F420915E
:1018C000B6053091B7050E94B02960938E047093DD
:1018D0008F0480939004909391040E94800502C02D
:1018E0000E94AB060E9494162091BC053091BD0564
:1018F000DC01CB01820F931FA11DB11D80939604C3
:1019000090939704A0939804B093990416C01092F2
:1019100096041092970410929804109299041092D1
:10192000AB040E94C30B60E971E080E090E0FF909F
:10193000EF90DF90CF900C945A16FF90EF90DF90CD
:10194000CF9008954F925F926F927F928F929F9265
:10195000AF92BF92CF92DF92EF92FF920F931F93BD
:10196000CF93DF930E94BA1CEC0190910E018091FD
:101970006204992309F49BC0823009F44AC018F428
:10198000813009F194C0833009F477C0843009F0C4
:101990008EC02091BC053091BD0530938304209307
:1019A0008204CE0167EE7FEF0E94BF2942E3469F8B
:1019B000C001479F900D1124820F931F90939304B1
:1019C0008093920490C12091B6053091B705309371
:1019D000830420938204CE01D7FD019695958795C7
:1019E0008901081B190B6091C1057091C205809196
:1019F000C3059091C40528EE33E040E050E00E941A
:101A00008E29C801821B930B9093930480939204B8
:101A10005CC00091B8051091B90510938304009340
:101A20008204C090B605D090B705E12CF12C6091EE
:101A3000C5057091C6058091C7059091C80528EE2F
:101A400033E040E050E00E948E292C193D094E09F8
:101A50005F09DE010E94862920E034E040E050E08A
:101A60000E945C29C20ED31EE41EF51E0C191D092E
:101A70001093930400939204A0C02091BA05309172
:101A8000BB053093830420938204CE016BEF7FEF7C
:101A90000E94BF2942E3469FC001479F900D112439
:101AA000820F931F9093930480939204EEC0823030
:101AB00009F483C018F4813041F049C1833009F43E
:101AC000E4C0843009F40FC142C100919204109126
:101AD0009304AE01D7FF02C04F5F5F4F5595479506
:101AE000485A544E400F511F6A01550FEE08FF0827
:101AF0006091C1057091C2058091C3059091C405A4
:101B000028EE422E23E0522E612C712CA30192016B
:101B10000E948E2949015A01C216D306E406F50631
:101B200010F4A90116C06091C5057091C605809199
:101B3000C7059091C805A30192010E948E29D70183
:101B4000C6012C153D054E055F0510F4DA01C901EB
:101B5000AC015093B7054093B605C530D1055CF490
:101B600060E070E084169506A606B70608F0EFC0A0
:101B7000015011091DC0CD3FD3400CF4E8C06A01EB
:101B8000E12CF12C6091C5057091C6058091C705C7
:101B90009091C80528EE33E040E050E00E948E2985
:101BA000C216D306E406F50608F0D1C00F5F1F4F3A
:101BB0001093930400939204CAC06091C50570917C
:101BC000C6058091C7059091C80528EE33E040E036
:101BD00050E00E948E2969017A010091B6051091AA
:101BE000B7054801A12CB12C281939094A095B090C
:101BF000DE010E94862920E034E040E050E00E94AF
:101C00005C29BA01A901480D591D6A1D7B1D8091EF
:101C10009204909193042C01092E000C6608770819
:101C2000440E551E661E771E481459046A047B0430
:101C30005CF0C414D504E604F70410F4960105C062
:101C40009C01240F351F01C098013093B9052093E2
:101C5000B805C530D10534F40217130708F077C072
:101C600001970EC0CD3FD3400CF471C0A90160E0D4
:101C700070E04C155D056E057F0508F068C00196A3
:101C8000909393048093920462C0209192043091C7
:101C90009304CE0165E070E00E94BF2942E3469FB5
:101CA000C001479F900D1124820F931F823391052D
:101CB0003CF0813147E294072CF080E197E202C0CA
:101CC00082E390E09093BB058093BA05C530D105BF
:101CD0001CF4C297E1F12CC0CD3FD340C4F1803158
:101CE0009742A9F12EC02091920430919304CE0125
:101CF00069E170E00E94BF2942E3469FC001479F0F
:101D0000900D1124820F931F97FD07C0813D47E07E
:101D100094072CF080ED97E002C080E090E0909373
:101D2000BD058093BC05C530D1052CF4892B79F015
:101D30002253310908C0CD3FD3404CF0803D97403D
:101D400031F02E5C3F4F309393042093920481E155
:101D50000E941D1520916204892BB9F52130E0F015
:101D6000243098F02430C1F41092AB0442E062E3D6
:101D700070E088E592E00E94B80060E671E081E0E2
:101D80000E94E9000E94C30B07C041E062E370E0DB
:101D900088E592E00E94B800809162048F5F809392
:101DA000620481E080930E01DF91CF911F910F912A
:101DB000FF90EF90DF90CF90BF90AF909F908F906B
:101DC0007F906F905F904F90089586E08093AB0472
:101DD00010920E01223069F178F4213009F05CC0D4
:101DE0004AE064E774E08091B6059091B7050E94DF
:101DF000E02863E473E028C0233099F1243009F02F
:101E00004BC04AE064E774E08091BC059091BD0549
:101E10000E94E0286AEC73E083E694E00E940D2AB9
:101E200064E774E083E694E00E94F9296CE573E0CE
:101E30002FC04AE064E774E08091B8059091B9053D
:101E40000E94E0286FE473E083E694E00E940D2A8C
:101E500064E774E083E694E00E94F9296AE473E0A1
:101E600017C04AE064E774E08091BA059091BB0521
:101E70000E94E02866E573E083E694E00E940D2A64
:101E800064E774E083E694E00E94F92961EA71E076
:101E900083E694E00E94F92963E674E081E0DF9133
:101EA000CF911F910F91FF90EF90DF90CF90BF9057
:101EB000AF909F908F907F906F905F904F900C9419
:101EC000E900EF92FF920F931F93CF93DF930E944D
:101ED000BA1CEC0180910E01882309F456C0809150
:101EE0006204833051F140F48130E9F0823009F02E
:101EF0004CC08091C90523C0853071F150F1863006
:101F000009F043C08091A8059091A90590936104C0
:101F10008093600490938304809382048C1B9D0BB8
:101F2000885C91092EC080919A04826080939A0403
:101F30000E949D048091C00502C08091CA0590E076
:101F40009093830480938204D0939304C09392046B
:101F50001CC08091A505F3CF2091BE053091BF052F
:101F60003093830420938204CE0166EF7FEF0E94BA
:101F7000BF294AE0469FC001479F900D1124820F60
:101F8000931F909393048093920480916204833012
:101F900009F442C0D0F4813009F1823009F0F1C077
:101FA0008091920490919304C81BD90B2496C6FB90
:101FB000EE24E0F8F12C80918204909183048E0D40
:101FC0009F1D81708093C905DCC0853009F47DC0F8
:101FD00008F466C0863009F4A6C0D3C0809192048C
:101FE000909193049E01281B390BC90104964091DE
:101FF0008204509183046AE1649F9001659F300DD3
:102000001124820F931F8F7799276AE170E00E9455
:10201000BF296093C005B5C020919204309193040C
:10202000CE01821B930B68E270E00E94BF29809171
:10203000820490918304680F791F77FD06C06A318E
:10204000710524F069E170E001C060E06093CA05A9
:10205000C530D1057CF4611106C062E08FE00E94BA
:10206000131662E019C0265F3F4F3093930420930C
:1020700092040DC0CD3FD34044F0693141F02A5065
:1020800031093093930420939204662331F360E086
:102090008FE00E94131660E083E00E94131671C067
:1020A0008091920490919304C81BD90B2496C6FB8F
:1020B000002700F910E08091820490918304080FBA
:1020C000191F01700093A5055CC020919204309106
:1020D0009304CE016AE070E00E94BF294AE0469F67
:1020E000C001479F900D1124820F931F8A309105E4
:1020F0003CF0893E43E094072CF088EE93E002C068
:102100008AE090E09093BF058093BE05C530D1056D
:102110001CF44497B0F126C0CD3FD34094F1883EE3
:10212000934079F128C02091920430919304CE011C
:1021300088539F4F820F931F883C91053CF0813B51
:1021400044E094072CF080EB94E002C088EC90E02F
:102150009093A9058093A805C530D10534F4883C37
:10216000910579F02A50310908C0CD3FD3404CF099
:10217000803B944031F0265F3F4F3093930420938F
:10218000920481E10E941D1520916204892B09F0BF
:1021900095C0233009F450C028F42130E1F02230FA
:1021A000B1F17DC0253009F46DC008F45EC0263061
:1021B00009F075C01092AB0442E062E370E088E57C
:1021C00092E00E94B80060E671E081E00E94E900C0
:1021D0000E94C30B64C041E062E370E088E592E0D6
:1021E0000E94B80068EC70E080E090E00E945A160F
:1021F0008091C005811153C08091620491E0980FD5
:102200009093620490910F01992359F148C041E0E5
:1022100062E370E088E592E00E94B80068EC70E04C
:1022200080E090E00E945A1680910F01811137C022
:10223000809162048F5F16C00E94F91841E062E34A
:1022400070E088E592E00E94B80068EC70E080E001
:1022500090E00E945A1680910901811120C080915E
:1022600062048E5F809362041AC08091A50581117B
:1022700009C08AE090E09093BF058093BE0585E099
:102280008093620441E062E370E088E592E00E949E
:10229000B80068EC70E080E090E00E945A168091EF
:1022A00062048F5F8093620481E080930E01DF916E
:1022B000CF911F910F91FF90EF90089584E080934C
:1022C000AB0410920E01233009F463C070F4213086
:1022D00061F1223009F099C064E873E083E694E08C
:1022E0000E940D2A8091C9054CC0253009F472C0A6
:1022F00008F43FC0263009F088C04AE064E774E083
:102300008091A8059091A9050E94E02861ED73E0F5
:1023100083E694E00E940D2A64E774E083E694E08B
:102320000E94F92961EA71E06CC060E673E083E61F
:1023300094E00E940D2A8091C0058230A1F040F403
:10234000882371F0813009F060C064E773E059C000
:10235000833061F0843009F058C06BE773E051C0FE
:1023600066E673E04EC06FE673E04BC060E873E072
:1023700048C06BEB73E083E694E00E940D2A8091E5
:10238000A505882319F066E072E03BC06DE973E0B3
:1023900038C08091CA05811107C061E973E083E606
:1023A00094E00E940D2A31C061EA73E080E00E944F
:1023B000E9008091CA054AE064E774E090E00E9479
:1023C000E0286EEA73E083E694E00E940D2A64E759
:1023D00074E017C04AE064E774E08091BE05909114
:1023E000BF050E94E02866EC73E083E694E00E945B
:1023F0000D2A64E774E083E694E00E94F9296DE514
:1024000073E083E694E00E94F92963E674E081E0DA
:10241000DF91CF911F910F91FF90EF900C94E90005
:10242000CF92DF92EF92FF920F931F93CF93DF93A0
:102430000E94BA1CEC0180910E0110916204882365
:10244000D1F1123069F01330F1F0113021F56091C3
:10245000C1057091C2058091C3059091C40508C063
:102460006091C5057091C6058091C7059091C8051A
:1024700028EE33E040E050E00E948E293093830440
:102480002093820408C08091A6059091A70590939F
:10249000830480938204CE01D7FD0196959587959C
:1024A0002091820430918304A901481B590B509359
:1024B000930440939204123009F43FC0133009F49E
:1024C0009AC0113009F0C6C0209192043091930453
:1024D000CE01D7FD019695958795820F931F883E73
:1024E00053E0950748F0813345E7940710F080E307
:1024F00095E7A0E0B0E004C088EE93E0A0E0B0E093
:102500008093C1059093C205A093C305B093C40501
:10251000C530D1053CF4883E9340A105B10509F4CE
:1025200099C089C0CD3FD3400CF494C08033954707
:10253000A105B10509F48EC087C0009192041091E5
:102540009304CE01D7FD0196959587957C01E00E09
:10255000F11EC090A605D090A7056091C1057091AD
:10256000C2058091C3059091C40528EE33E040E098
:1025700050E00E948E29BA01A9014C0D5D1D611D1C
:10258000711DC7010F2C000CAA0BBB0B84179507FC
:10259000A607B70758F0C70121E3E21625E7F206C0
:1025A00010F080E395E7A0E0B0E002C0DB01CA01D3
:1025B0008093C5059093C605A093C705B093C80541
:1025C000C530D1054CF4481759076A077B0708F056
:1025D00041C00A5011090AC0CD3FD340DCF180331D
:1025E0009547A105B105B0F5065F1F4F1093930401
:1025F000009392042FC02091920430919304CE0155
:10260000D7FD019695958795820F931F8A30910586
:102610003CF0853F41E094072CF084EF91E002C04C
:102620008AE090E09093A7058093A605C530D10578
:102630002CF40A9779F02A50310908C0CD3FD340D5
:102640004CF0843F914031F0265F3F4F309393042C
:102650002093920481E10E941D1520916204892B30
:1026600009F057C02230D1F02330D1F1213009F0E8
:1026700047C02091C1053091C2054091C3055091DA
:10268000C405A8EEB3E00E947B296093C105709356
:10269000C2058093C3059093C40514C02091C5055D
:1026A0003091C6054091C7055091C805A8EEB3E02A
:1026B0000E947B296093C5057093C6058093C7056A
:1026C0009093C80541E062E370E088E592E00E94E3
:1026D000B80068EC70E080E090E00E945A1610C0EC
:1026E0001092AB0442E062E370E088E592E00E9461
:1026F000B80060E671E081E00E94E9000E94C30B2F
:10270000809162048F5F8093620481E080930E0168
:1027100054C083E08093AB0410920E012230A9F0E4
:10272000233019F1213009F048C06091C105709142
:10273000C2058091C3059091C4052AE044E754E0A6
:102740000E94FA286BED73E01BC06091C505709183
:10275000C6058091C7059091C8052AE044E754E07A
:102760000E94FA2860EE73E00BC04AE064E774E070
:102770008091A6059091A7050E94E02865EE73E080
:1027800083E694E00E940D2A64E774E083E694E017
:102790000E94F9296AE473E083E694E00E94F92933
:1027A00063E674E081E0DF91CF911F910F91FF907C
:1027B000EF90DF90CF900C94E900DF91CF911F91C3
:1027C0000F91FF90EF90DF90CF900895CF92DF921E
:1027D000EF92FF920F931F93CF93DF936C017A01D7
:1027E0008B01C0E0D0E0CE15DF0589F0D8016D91F6
:1027F0008D01D601ED91FC910190F081E02DC60193
:102800000995892B11F47E0102C02196ECCFC701F6
:10281000DF91CF911F910F91FF90EF90DF90CF90BC
:102820000895833081F028F4813099F08230A1F04E
:1028300008958730A9F08830B9F08430D1F48091C0
:1028400080008F7D03C0809180008F77809380000F
:10285000089584B58F7702C084B58F7D84BD0895B7
:102860008091B0008F7703C08091B0008F7D8093FE
:10287000B00008953FB7F894809123059091240506
:10288000A0912505B091260526B5A89B05C02F3F30
:1028900019F00196A11DB11D3FBFBA2FA92F982F86
:1028A0008827820F911DA11DB11DBC01CD0142E001
:1028B000660F771F881F991F4A95D1F708950895CD
:1028C00085ED8093BC008091BC0084FDFCCF10920C
:1028D0004D0508954091F904262F30E0240F311D55
:1028E00021323105DCF420914D052430C9F4FC017E
:1028F00080E090E0861758F43091F9042191DC01D2
:10290000A952BB4FA30FB11D2C930196F3CF809119
:10291000F904680F6093F90480E0089581E0089558
:1029200082E00895089581E090E030915C04209168
:102930005B04321710F480E090E091958195910945
:10294000089580915C0490915B04891730F48F5F47
:1029500080935C0480E090E008958FEF9FEF0895EE
:1029600080915B0490E020915C04821B91090895A2
:10297000CF92DF92EF92FF920F931F93CF93DF934B
:102980007C01262F972F8A0180914E05882391F094
:10299000C62FD72F6E01C40ED51ECC15DD0571F0E4
:1029A0006991D701ED91FC910190F081E02DC70173
:1029B0000995F3CF642F822F0E946A14C801DF911A
:1029C000CF911F910F91FF90EF90DF90CF900895DE
:1029D000CF93DF931F92CDB7DEB7698320914E0569
:1029E0002223D1F020917105203240F021E030E027
:1029F000FC013383228380E090E015C080914F0575
:102A0000E82FF0E0E05BFA4F998190838F5F80932D
:102A10004F058093710505C061E0CE0101960E94CB
:102A20006A1481E090E00F90DF91CF9108950895AE
:102A300080E090E008950E94F429CF93DF93282F3F
:102A400030E0F901EE52FF4F8491F901EA51FF4F56
:102A5000D491F901EC5FFE4FC491CC2391F0811128
:102A60000E941114EC2FF0E0EE0FFF1FE853FF4F10
:102A7000A591B491EC91ED2381E090E021F480E008
:102A800002C080E090E0DF91CF9108951F93CF9333
:102A9000DF93282F30E0F901EE52FF4F8491F901C6
:102AA000EA51FF4FD491F901EC5FFE4FC491CC2362
:102AB000C9F0162F81110E941114EC2FF0E0EE0FD7
:102AC000FF1FE650FF4FA591B4918FB7F8941111F5
:102AD00005C09C91ED2FE095E92302C0EC91ED2B10
:102AE000EC938FBFDF91CF911F91089590912301B7
:102AF000981324C0E8E1F1E0E4919FEF9093230163
:102B0000E130B9F098F0E230C9F4909170009D7F07
:102B10009093700091E09093B0009091B100987FF5
:102B200094609093B1001092B30008C010926E00B0
:102B300005C090916F009D7F90936F0060E00C94B2
:102B400046151F920F920FB60F9211242F933F93A9
:102B50004F935F936F937F938F939F93AF93BF93A5
:102B6000EF93FF938091750590917605A09177057D
:102B7000B0917805892B8A2B8B2B51F180917205AE
:102B8000E0917305F091740590818927808380918D
:102B9000750590917605A0917705B0917805181686
:102BA00019061A061B06C4F48091750590917605E6
:102BB000A0917705B09178050197A109B10980939B
:102BC000750590937605A0937705B093780504C0BA
:102BD000809123010E947615FF91EF91BF91AF91F3
:102BE0009F918F917F916F915F914F913F912F9125
:102BF0000F900FBE0F901F901895CF93DF93EC01AD
:102C000060E08E810E94461561E08E810E9446152B
:102C100060E08E810E9446158BE891E00197F1F704
:102C2000DF91CF910895CF93DF9390E0FC01EA51BB
:102C3000FF4F2491FC01EC5FFE4F8491882361F1EA
:102C400090E0880F991FFC01E254FF4FC591D49189
:102C5000FC01E650FF4FA591B491611109C09FB7E7
:102C6000F8948881209582238883EC912E230BC0D1
:102C7000623061F49FB7F8943881822F8095832366
:102C80008883EC912E2B2C939FBF06C08FB7F894AE
:102C9000E8812E2B28838FBFDF91CF91089582305A
:102CA000910538F0880F991F880F991F0597019794
:102CB000F1F708958F929F92AF92BF92CF92DF92D9
:102CC000EF92FF926B017C010E943A144B015C0170
:102CD000C114D104E104F104F1F00E943A14DC01C2
:102CE000CB0188199909AA09BB09883E9340A1051F
:102CF000B10570F321E0C21AD108E108F10888EEAD
:102D0000880E83E0981EA11CB11CC114D104E104FB
:102D1000F10419F7DDCFFF90EF90DF90CF90BF90D7
:102D2000AF909F908F9008952FB7F89460911F05F2
:102D30007091200580912105909122052FBF089563
:102D40001F920F920FB60F9211242F933F938F93E0
:102D50009F93AF93BF9380911F0590912005A09101
:102D60002105B091220530911E0523E0230F2D3758
:102D700020F40196A11DB11D05C026E8230F02967F
:102D8000A11DB11D20931E0580931F059093200562
:102D9000A0932105B09322058091230590912405ED
:102DA000A0912505B09126050196A11DB11D809326
:102DB000230590932405A0932505B0932605BF9184
:102DC000AF919F918F913F912F910F900FBE0F90D8
:102DD0001F901895CF92DF92EF92FF920F931F935F
:102DE000CF93DF937C016C0187E0C80ED11CC0E05B
:102DF000D0E0062F10E0B8010C2E02C07595679543
:102E00000A94E2F76170F60181916F010E94461504
:102E10002196C430D10579F7C701DF91CF911F9179
:102E20000F91FF90EF90DF90CF900C94FD15CF9213
:102E3000DF92EF92FF920F931F93CF93DF93EC01FA
:102E4000F62E642F8C810E9446158D818F3F19F0DC
:102E500060E00E9446158F850F2D10E084FF25C08D
:102E60006E0187E0C80ED11CE12CF12CB8010E2CAC
:102E700002C0759567950A94E2F76170F601819139
:102E80006F010E944615FFEFEF1AFF0A88E0E8166F
:102E9000F10461F7CE01DF91CF911F910F91FF9067
:102EA000EF90DF90CF900C94FD15B80184E07595FC
:102EB00067958A95E1F7CE010E94EA166F2DCE0143
:102EC000DF91CF911F910F91FF90EF90DF90CF9006
:102ED0000C94EA1641E00E94171781E090E00895F3
:102EE00040E00C9417171F920F920FB60F92112407
:102EF0002F933F934F935F936F937F938F939F9302
:102F0000AF93BF93CF93EF93FF9396B1C0915E04BD
:102F1000C923809159048927C82390935904C0FF7D
:102F200005C0E0910701F09108010995C1FF05C0B6
:102F3000E0911001F09111010995C2FF05C0E091E7
:102F40001201F09113010995C3FF05C0E09114012E
:102F5000F09115010995C4FF05C0E0911601F091AB
:102F600017010995C5FF05C0E0911801F0911901FD
:102F70000995FF91EF91CF91BF91AF919F918F9163
:102F80007F916F915F914F913F912F910F900FBE65
:102F90000F901F9018951F920F920FB60F92112449
:102FA0002F933F934F935F936F937F938F939F9351
:102FB000AF93BF93EF93FF938091B900887F8036E2
:102FC00009F49CC068F5883209F45BC090F4803144
:102FD00009F454C038F4882309F4F6C0883009F4A1
:102FE0004DC0F6C0883109F44CC0803209F45DC090
:102FF000EFC0803409F468C048F4803309F455C048
:10300000883309F0E5C080934B05D8C0803509F4BA
:103010004FC0883509F45DC0883409F0D9C0D6C0E6
:10302000883909F4C7C0A8F4883709F467C038F4B0
:10303000883609F463C0803709F460C0C9C0883895
:1030400009F4B8C0803909F45FC0803809F0C0C005
:103050005BC0803B09F486C038F4803A09F466C04E
:10306000883A09F47FC0B4C0803C09F4A7C0883C0A
:1030700009F4A4C0883B09F48AC0AAC0809128053D
:1030800010C090914A0580914905981770F5E0911C
:103090004A0581E08E0F80934A05F0E0E75DFA4F24
:1030A00080818093BB0085EC86C080934B058EC0E9
:1030B000E0914A0581E08E0F80934A058091BB0024
:1030C000F0E0E75DFA4F808390914A0580914905D1
:1030D0006EC0E0914A0581E08E0F80934A05809191
:1030E000BB00F0E0E75DFA4F808380914C058111D1
:1030F0006DC081E08093270584EA61C083E08093FE
:103100004D0510921D05CFCF80911D05803208F02E
:1031100051C0E0911D0581E08E0F80931D058091C7
:10312000BB00F0E0E350FB4F8083BDCF85EC809384
:10313000BC0010924D0580911D05803230F4E09165
:103140001D05F0E0E350FB4F108260911D0570E01B
:10315000E091FB04F091FC048DEF94E0099510924E
:103160001D0536C084E080934D051092FA0410923C
:10317000F904E091F704F091F80409958091F904BD
:10318000811105C081E08093F9041092D704E09189
:10319000FA0481E08E0F8093FA04F0E0E952FB4FCD
:1031A00080818093BB009091FA048091F904981774
:1031B00008F479CF85E88093BC000AC085EC809341
:1031C000BC0010924D0504C010924B050E94601483
:1031D000FF91EF91BF91AF919F918F917F916F91EF
:1031E0005F914F913F912F910F900FBE0F901F90C5
:1031F0001895AF92BF92CF92DF92FF920F931F93D9
:10320000CF93DF9360E08FE00E94131660E083E0CD
:103210000E9413161092D60493ECC92ED12CD09193
:10322000D604DF5FD093D60400E010E0C0E0AD2EFE
:10323000B12C61E082E00E944615F6013197F1F76A
:1032400060E082E00E944615C5010E944F168FE0A3
:103250000E941D15892B19F004E610E0C1E00F5FF4
:103260001F4F043611052CF3CC2311F0DF3FB9F6C4
:103270001092D50483ECC82ED12CC091D504CF5F19
:10328000C093D50400E010E0F12CAC2EB12C61E02D
:1032900082E00E944615F6013197F1F760E082E086
:1032A0000E944615C5010E944F1683E00E941D151D
:1032B000892B21F004E610E0FF24F3940F5F1F4FE9
:1032C0000436110524F3FF2019F0CF3FB1F608C0F2
:1032D000DF3F31F0CF3F21F0D13011F0C13061F448
:1032E00010920F011092CA056FEE73E080E00E9409
:1032F000E9006DEF73E03CC08091CA058823B1F10D
:103300006AE074E080E00E94E9006BE174E083E62B
:1033100094E00E940D2A8091D6044AE064E774E0AC
:1033200090E00E94E02864E774E083E694E00E9465
:10333000F92960E274E083E694E00E94F929809123
:10334000D5044AE064E774E090E00E94E02864E776
:1033500074E083E694E00E94F92967E274E083E672
:1033600094E00E94F92963E674E002C061E973E029
:1033700081E00E94E90060ED77E080E090E00E944B
:103380005A160E949D048091CA05811111C062E005
:103390008FE00E94131662E083E0DF91CF911F91CE
:1033A0000F91FF90DF90CF90BF90AF900C941316C9
:1033B000DF91CF911F910F91FF90DF90CF90BF9041
:1033C000AF900895EF92FF920F931F93CF93DF93E7
:1033D000EC01623018F08F8588608F876B8B1C8AB8
:1033E00080E48D8B80E18E8B80E58F8B61E08C811A
:1033F0000E9413168D818F3F19F061E00E94131611
:1034000061E08E810E9413167E0187E0E80EF11CB8
:1034100000E010E08F8584FD03C084E090E002C0EE
:1034200088E090E0081719074CF461E0F7018191FA
:103430007F010E9413160F5F1F4FECCF8BE39DE0BF
:103440000197F1F760E08C810E94461560E08E8163
:103450000E9446158D818F3F19F060E00E9446154D
:103460006F8564FD1DC063E0CE010E94EA160BE487
:1034700016E4C8010197F1F763E0CE010E94EA1655
:10348000C8010197F1F763E0CE010E94EA1683E5D7
:1034900092E00197F1F762E0CE010E94EA1616C0B1
:1034A0006062CE010E9470178BE496E40197F1F7F9
:1034B0006F856062CE010E94701783E592E00197EC
:1034C000F1F76F856062CE010E9470176F856062B0
:1034D000CE010E94701784E0888B6CE0CE010E94C0
:1034E000701761E0CE010E9470178BE39FE1019796
:1034F000F1F782E0898B66E0CE01DF91CF911F91D9
:103500000F91FF90EF900C947017EF92FF920F9332
:103510001F93CF93DF931F92CDB7DEB70DE915E070
:10352000E12CF12CF80161918F01C70169830E94A0
:1035300046296981681719F0C7010E944E29FFEFDB
:10354000EF1AFF0A8EE2E816F10461F78DE995E0C3
:103550000F90DF91CF911F910F91FF90EF90089501
:103560008F929F92AF92BF92CF92DF92EF92FF9293
:10357000CF9320912301253021F02F3F09F0F0C196
:1035800004C0E8E1F1E0C49172C025E0209323017A
:10359000E8E1F1E0C491CF3F09F4E2C1C13009F1A3
:1035A000C23009F441C0C11162C014BC15BC24B5BD
:1035B000226024BD25B5216025BDE9E0F1E0E4915C
:1035C000F0E0EE0FFF1FE650FF4F2591349130934E
:1035D000D0052093CF05EBEEF0E0E491E093CE052B
:1035E00048C01092800010928100209181002860D4
:1035F0002093810020918100216020938100E9E0E7
:10360000F1E0E491F0E0EE0FFF1FE650FF4F25914F
:1036100034913093CD052093CC05EBEEF0E0E491AE
:10362000E093CB05C1E025C01092B0001092B1002C
:103630002091B00022602093B0002091B100216061
:103640002093B100E9E0F1E0E491F0E0EE0FFF1F1C
:10365000E650FF4F25913491309374052093730504
:10366000EBEEF0E0E491E0937205C2E002C0C7FD2A
:1036700077C14C0161E085E00E941316A12CB12CAA
:103680008C2F8D7F09F0A9C060E072E18AE790E09D
:10369000A50194010E945C2969017A01BA01A9017E
:1036A00041505109610971094F3F5105610571058B
:1036B00009F008F445C060E472E48FE090E0A501F1
:1036C00094010E945C29BA01A90141505109610984
:1036D0007109C230E9F44F3F51056105710509F0E8
:1036E00008F43CC160E970ED83E090E0A50194012D
:1036F0000E945C29BA01A90141505109610971096F
:103700004F3F51056105710509F0A8F583E05EC0E2
:103710004F3F510561057105A9F0A0F068E478EE0E
:1037200081E090E0A50194010E945C29BA01A90101
:103730004150510961097109CC2309F4BEC006C189
:1037400081E001C082E0CC2389F040C0D701C601EE
:103750002AE0B595A795979587952A95D1F7AC015D
:10376000BD01415051096109710985E095B5987F06
:10377000892B85BD66C068E478EE81E090E0A50104
:1037800094010E945C29BA01A901415051096109C3
:1037900071094F3F51056105710509F008F48BC0AF
:1037A00064E274EF80E090E0A50194010E945C293E
:1037B000BA01A90141505109610971094F3F5105F1
:1037C0006105710511F008F097C085E09091B10096
:1037D000987F892B8093B1002EC060E072E18AE768
:1037E00090E0A50194010E945C29BA01A901415011
:1037F0005109610971094115510581E06807710599
:1038000080F068E478EE81E090E0A50194010E94E8
:103810005C29BA01A901415051096109710993E07C
:1038200001C091E0C13039F480918100887F892BFB
:103830008093810018C0C130B1F0C23049F1C1118C
:103840008FC047BD8FEF9FEFDC018093D50590932C
:10385000D605A093D705B093D80580916E008260FD
:1038600080936E007DC050938900409388008FEF55
:103870009FEFDC018093D1059093D205A093D305EF
:10388000B093D40580916F00826080936F0068C010
:103890004093B3008FEF9FEFDC0180937505909309
:1038A0007605A0937705B0937805809170008260CB
:1038B0008093700055C084E089CF4F3F510561056A
:1038C0007105C1F0B8F062E17AE780E090E0A5010F
:1038D00094010E945C29BA01A90141505109610972
:1038E00071094F3F51056105710511F008F02ECFA8
:1038F00084E03CCF83E03ACF62E17AE780E090E079
:10390000A50194010E945C29BA01A9014150510905
:10391000610971094F3F510561057105A9F0A0F0DA
:10392000D701C6013AE0B595A795979587953A9541
:10393000D1F7AC01BD014150510961097109CC2396
:1039400009F413CF87E042CF86E0FDCE4F3F51050B
:103950006105710509F080F684E0F5CE82E036CF8E
:10396000CF91FF90EF90DF90CF90BF90AF909F905E
:103970008F9008958091220120E4829FC00111243C
:10398000876080937C0080917A00806480937A00C5
:1039900080917A0086FDFCCF80917800209179009B
:1039A00090E0922B0895209171059091700521323D
:1039B00008F04AC080914D058111FCCF32E0309370
:1039C0004D0531E030934C053FEF30934B0510929D
:1039D0004A0520934905A0E5B5E049E255E0FA0122
:1039E0003E2F341B321718F43D913193F9CF1092CA
:1039F000280520912805990F922B909328059091E6
:103A00002705913061F41092270590912805909335
:103A1000BB009091BC0093FDF8CF95EC01C095EEF2
:103A20009093BC0090914D059230E1F390914B053D
:103A30009F3F79F080914B05803241F080914B059A
:103A4000803331F084E005C081E003C082E001C032
:103A500083E010924F051092710510924E05089563
:103A6000EF92FF921F93CF93DF931F92CDB7DEB7F4
:103A7000162F91E090934E0590E69093700510926A
:103A80004F0510927105682F89E795E079830E94B0
:103A9000E814E12E7981F72E19E0115041F0F70179
:103AA00061917F0189E795E00E94E814F6CF0F90BD
:103AB000DF91CF911F91FF90EF900C94D31C8F92C8
:103AC0009F92AF92BF92CF92DF92EF92FF920F93AD
:103AD0001F93CF93DF93CDB7DEB728970FB6F89437
:103AE000DEBF0FBECDBF6B017C01DC01CB0180527C
:103AF000914AA740B10981329449A747B64020F0C6
:103B000080912101846066C060911D0170911E0149
:103B100080911F0190912001A70196010E948E299A
:103B20004601570188249924E0EFAE2289288A288B
:103B30008B2849F09695879577956795F694E79445
:103B4000D794C794EDCFE7E0660F771F881F991FC2
:103B5000EA95D1F789019A01F7E0000F111F221FA2
:103B6000331FFA95D1F74801590142E0941AA10890
:103B7000B108A70196010E948E2989019A01080DBA
:103B8000191D2A1D3B1DD982CA822B831C830D83DC
:103B9000CC24DD24EFE0EE22FF24A4E0CC0CDD1CDD
:103BA000EE1CFF1CAA95D1F7C62AD72AE82AF92AC3
:103BB000EE827F836887BE016F5F7F4F8AE30E943A
:103BC000301D60911C016C6082E10E945F0A80914F
:103BD00021018B7F809321016091210183E00E946C
:103BE0005F0A28960FB6F894DEBF0FBECDBFDF91F7
:103BF000CF911F910F91FF90EF90DF90CF90BF90EA
:103C0000AF909F908F900895CF93DF93CDB7DEB79D
:103C10002A970FB6F894DEBF0FBECDBF789484B557
:103C2000826084BD84B5816084BD85B5826085BDB8
:103C300085B5816085BD80916E00816080936E0046
:103C40001092810080918100826080938100809138
:103C500081008160809381008091800081608093E9
:103C600080008091B10084608093B1008091B000A9
:103C700081608093B00080917A00846080937A00A4
:103C800080917A00826080937A0080917A008160CE
:103C900080937A0080917A00806880937A001092F5
:103CA000C1008CE180939D0560EB71E083E694E0B8
:103CB0000E940D2A62E085E895E00E94E21981E009
:103CC0008093220162E081E10E94131662E080E1AC
:103CD0000E94131662E084E00E94131662E08EE0F8
:103CE0000E94131662E087E00E94131664E670E0FB
:103CF00080E090E00E945A1687E00E941D15892BF3
:103D000051F0109209011092A5058AE090E090937D
:103D1000BF058093BE0561E087E00E94131660E056
:103D200087E00E94461561E086E00E94131660E07D
:103D300086E00E94461561E085E00E94131660E06F
:103D400085E00E94461561E082E00E94131660E063
:103D500082E00E94461580E090E00E944629182FDC
:103D600080E10E941D15892B09F42BC681E10E9478
:103D70001D15892B09F425C690919D05191321C69F
:103D800064E670E080E090E00E945A168EE00E94A7
:103D90001D1521E0892B09F020E020939D0463E6A6
:103DA00074E080E00E94E90068EE73E080E090E05B
:103DB0000E945A161DE9E12E15E0F12E00E010E0F8
:103DC000C8010E944629F70181937F010F5F1F4FB1
:103DD0000E321105A9F780919D048823F1F060E06F
:103DE0008EE00E94131688E79AE090930801809372
:103DF000070180915E04816080935E0486B18093A8
:103E0000590480916C00816080936C0080916800FF
:103E10008260809368000E94F91810925C041092EE
:103E20005B0410924F051092710510924D0511E040
:103E300010934C051092270561E082E10E9446151F
:103E400061E083E10E9446158091B9008E7F8093E6
:103E5000B9008091B9008D7F8093B90088E4809388
:103E6000B80085E48093BC0060E085E90E945F0AA9
:103E70006091210183E00E945F0A62E987EB0E9462
:103E80005F0ABE016F5F7F4F88E0FB0111928A9548
:103E9000E9F71A838FE08C8380E88D838AE10E94A2
:103EA000301D60E281EB0E945F0AA091A105B091F4
:103EB000A20524E630E00E94D929DC01CB01805420
:103EC0009F48A84DBB4C80931D0190931E01A09369
:103ED0001F01B09320014091AA055091AB0560915C
:103EE000AC057091AD0540938804509389046093AC
:103EF0008A0470938B048091AE059091AF05A091D8
:103F0000B005B091B1058093840490938504A0938B
:103F10008604B09387042091B40521110BC040930F
:103F20008E0450938F046093900470939104809159
:103F3000B2050AC080938E0490938F04A0939004DE
:103F4000B09391048091B30580939A0480919A0470
:103F500080FF03C08091A40502C08091A3050E9448
:103F6000970680919A04823040F08091A805909144
:103F7000A90590936104809360040E94C30B809113
:103F8000A1059091A2058732964091F480919F05FA
:103F90009091A0058C3D954059F460EC71E081E072
:103FA0000E94E90068EE73E080E090E00E945A16FB
:103FB00043E06CE370E08091A8059091A9050E9410
:103FC000B80041E064EB70E08091A8059091A905EC
:103FD0000E94B800F8E82F2EF3E13F2EA6EF4A2EFC
:103FE000A7E25A2E612C712CBAE08B2E912CA12CB9
:103FF000B12C11E00BE0E091AB048E2F90E0893002
:10400000910508F0D0C4FC01EC5CFF4F0C94D3295F
:1040100080E10E941D15892BA9F41093AB04109325
:10402000AA040E94740B61ED71E080E00E94E90037
:1040300062EE71E081E00E94E90060ED77E080E0EF
:1040400090E0B5C48091CA0581110E947C0A8091DC
:10405000A904811153C00E9494162091A5043091A7
:10406000A6044091A7045091A804C090A104D09048
:10407000A204E090A304F090A404C216D306E406C0
:10408000F50610F469017A01DC01CB018C199D0958
:10409000AE09BF09893E9340A105B10508F094C45B
:1040A0002DC080919F04882309F43CC50E946405BB
:1040B0000E94860B90938D0480938C0441E062E310
:1040C00070E088E592E00E94B80064E670E080E06D
:1040D00090E00E945A1684E00E941D15892B09F475
:1040E00068C68091A004882309F468C68A3009F460
:1040F00065C68091A004882309F463C680919D045D
:104100008823A9F18091A904882331F180919C042E
:10411000882311F160E070E0CB010E945F1D809167
:10412000A004811105C06EEC72E081E00E94E900FC
:1041300041E06CE370E088EE93E00E94B80041E05B
:1041400068E770E084EF91E00E94B8006CE271E0F3
:1041500080E090E00E945A160E941B070E94E4082B
:1041600080919B048823A9F00E94410112C0809194
:104170009C04882371F060E070E0CB010E945F1D19
:104180008091A004811105C06EEC72E081E00E9474
:10419000E90080919F04882309F4B1C08091A904AB
:1041A0008111ADC00E9494162091A5043091A604FF
:1041B0004091A7045091A804C090A104D090A204FB
:1041C000E090A304F090A404C216D306E406F5061A
:1041D00010F469017A01DC01CB018C199D09AE094B
:1041E000BF09883E9340A105B10508F4E2C30E94CF
:1041F000860B20910E01AC01485853412223B9F09F
:104200002091B6043091B704309383042093820444
:10421000BA0157FF02C06F5F7F4F75956795261BE8
:10422000370B309393042093920410920E01209147
:1042300092043091930457FF02C04F5F5F4F559532
:104240004795420F531F5093B7044093B6048530EF
:1042500091053CF44D3366EF560784F02253310943
:1042600009C08D3E974254F0443CF9E05F0734F4B6
:104270002E5C3F4F3093930420939204509381041B
:104280004093800480917E0490917F0448175907E1
:1042900009F48FC30E9480054AE064E774E08091CE
:1042A000B6049091B7040E94E0286CED72E083E6BA
:1042B00094E00E940D2A64E774E083E694E00E9493
:1042C000F92961EA71E083E694E00E94F92963E646
:1042D00074E081E00E94E900809180049091810463
:1042E00090937F0480937E040E94860B90938D04AC
:1042F00080938C046EE170E080E090E058C30E94EF
:1043000094162091A5043091A6044091A7045091E1
:10431000A804C090A104D090A204E090A304F0905F
:10432000A404C216D306E406F50610F469017A0166
:10433000AB01BC014C195D096E097F098091BE0576
:104340009091BF05A0E0B0E084179507A607B707D6
:1043500008F02FC30E94BA1CDC0120EA36E841E0D5
:1043600050E00E948629A30192010E945C2980915D
:10437000A904882311F18091A0048A300CF019C39C
:1043800080918C0490918D04281B390B37FF03C05A
:10439000319521953109233331050CF40AC38091FD
:1043A0009E04811106C361E571E081E00E94E9008D
:1043B0000E94C30B10930E01FCC280919E048111D8
:1043C000F8C280918C0490918D049A878987281B6C
:1043D000390B2D5E3F4F2732310508F077C0C09072
:1043E0008804D0908904E0908A04F0908B04809136
:1043F000AA059091AB05A091AC05B091AD05C8168A
:10440000D906EA06FB0669F0A7019601281B390BBD
:104410004A0B5B0BDA01C901853F9140A105B1054B
:10442000F0F48091840490918504A0918604B09169
:1044300087044091AE055091AF056091B005709131
:10444000B10584179507A607B707B1F1841B950B33
:10445000A60BB70B853F9140A105B10568F10E94FD
:1044600094162091B8043091B9044091BA04509147
:10447000BB04DC01CB01821B930BA40BB50B813376
:104480009547A105B10510F1C092AA05D092AB05E0
:10449000E092AC05F092AD05809184049091850482
:1044A000A0918604B09187048093AE059093AF05E8
:1044B000A093B005B093B1050E9494166093B80420
:1044C0007093B9048093BA049093BB040E94860B46
:1044D000009709F087C0C0908E04D0908F04E090C0
:1044E0009004F09091044091C1055091C2056091F3
:1044F000C3057091C405C416D506E606F70609F48F
:1045000019C14C155D056E057F0508F03FC020916F
:10451000A6053091A70580910A0190910B01A09109
:104520000C01B0910D012931310528F4885E9340CA
:10453000A109B10904C080519742A109B109809332
:104540000A0190930B01A0930C01B0930D0180918F
:104550000A0190910B01A0910C01B0910D01809383
:104560008E0490938F04A0939004B0939104809153
:10457000A0048A302CF461EE72E081E00E94E90030
:104580006CE271E080E090E00E945A168091C105D3
:104590009091C205A091C305B091C40540918E04CD
:1045A00050918F04609190047091910448175907BD
:1045B0006A077B0780F480938E0490938F04A09306
:1045C0009004B093910480930A0190930B01A093FF
:1045D0000C01B0930D010E94800510928D04109281
:1045E0008C0409C1803167E2960709F0A3C0C0902E
:1045F0008E04D0908F04E0909004F090910440914C
:10460000C5055091C6056091C7057091C805C416CF
:10461000D506E606F70609F48DC0C416D506E606EB
:10462000F70608F04BC02091A6053091A7058091B0
:104630000A0190910B01A0910C01B0910D0129315B
:10464000310528F488519C4FAF4FBF4F04C0805FA5
:10465000984DAF4FBF4F80930A0190930B01A093E9
:104660000C01B0930D01A0E1B7E20E94B029A501B1
:1046700094010E948E2980910A0190910B01A091D2
:104680000C01B0910D01820F931FA41FB51F8093E1
:104690008E0490938F04A0939004B0939104809122
:1046A000A0048A302CF469EE72E081E00E94E900F7
:1046B0006CE271E080E090E00E945A16C090C5055F
:1046C000D090C605E090C705F090C80580918E0493
:1046D00090918F04A0919004B0919104C816D906CE
:1046E000EA06FB06F0F42091A6053091A705A8EE96
:1046F000B3E00E94B029A7019601261B370B480B97
:10470000590B20930A0130930B0140930C015093F5
:104710000D01C0928E04D0928F04E0929004F0922A
:1047200091040E94800540E157E250938D0440932C
:104730008C0461C09C0149855A85241B350B37FFC9
:1047400003C0319521953109253031050CF453C052
:1047500029853A85820F931F97FD0196DC01B59557
:10476000A795B0938D04A0938C042091A605309159
:10477000A7050E94D929A50194010E948E29809144
:104780000A0190910B01A0910C01B0910D01BA01A9
:10479000A901480F591F6A1F7B1F8091C105909185
:1047A000C205A091C305B091C405481759076A070F
:1047B0007B0788F0C090C505D090C605E090C7057E
:1047C000F090C805DB01CA01C416D506E606F70657
:1047D00010F4D701C60180938E0490938F04A093A8
:1047E0009004B09391040E9480056AE070E080E03C
:1047F00090E00E945A162091B40580918E04909109
:104800008F04A0919004B0919104211109C080936C
:10481000880490938904A0938A04B0938B04C9C040
:104820008093840490938504A0938604B0938704B6
:10483000C0C00E946109B7C00E941A06B4C00E949D
:104840001012B1C00E94610F8091CA0581110E94AF
:104850007C0A0E941B070E94E40880919B04882325
:1048600009F4A7C00E944101A4C00E94A20C9BC0F1
:104870000E94E90B98C080919A0481FF35C00E9484
:104880009416C0909604D0909704E0909804F0900D
:104890009904DC01CB018C199D09AE09BF09893E41
:1048A0009340A105B10500F18091A8059091A9055B
:1048B0000E94B01A0E949416DC01CB018C199D094C
:1048C000AE09BF098F379440A105B10568F085E0B6
:1048D0000E9476150E949416609396047093970434
:1048E00080939804909399040E94860B7C0184E045
:1048F0000E941D15892B09F0A2C38091A904811182
:104900009EC380919E0481119AC380910E018823D9
:1049100099F010920E014FE057E25093BD0440937E
:10492000BC04C1018E199F0965E070E00E94BF2997
:1049300070939304609392042091920430919304B5
:10494000C7018858934165E070E00E94BF29620F5B
:10495000731F70939504609394045AE0E516F10474
:104960000CF039C369318CEF78070CF012C38091D9
:10497000BC049091BD046817790721F00E9480055E
:104980000E949D0480919A0481FF56C36AEF72E0F1
:1049900081E00E94E90080919404909195049093A5
:1049A000BD048093BC0464E670E080E090E00E9467
:1049B0005A1620E030E0232B09F41DCB0E940000A2
:1049C00018CB0E94740BDCC981E10E941D15892B54
:1049D00009F47AC00E949416C090B204D090B30437
:1049E000E090B404F090B504DC01CB018C199D0972
:1049F000AE09BF098093AE049093AF04A093B004B6
:104A0000B093B1042091AD04222309F441C0209158
:104A1000A0042A30ECF589559240A109B1098F35DF
:104A20009940A105B105A0F56EEE71E081E00E940C
:104A3000E90080918E0490918F04A0919004B09130
:104A400091048093840490938504A0938604B0938A
:104A500087048093880490938904A0938A04B09378
:104A60008B0480919A048093B3058093B2050E94D1
:104A70009D0442E062E370E088E592E00E94B800A5
:104A80006CEB72E080E090E00E945A161092A00455
:104A90008091AE049091AF04A091B004B091B104A4
:104AA0008D3D9540A105B10564F08091A0048093EF
:104AB000AC048A3024F08AE08093A00402C01092F3
:104AC000A0041092AD0492C06AE070E080E090E033
:104AD0000E945A1681E10E941D15892B09F086C09B
:104AE00080919E04882309F47AC184E00E941D15F8
:104AF000892B09F474C141E062E370E088E592E03B
:104B00000E94B80065EC73E081E00E94E90064EF68
:104B100071E080E090E00E945A1610929E040E947C
:104B2000C30B79C18091AD048111BBC11093AD0459
:104B30000E9494166093B2047093B3048093B404FB
:104B40009093B50441E062E370E080EB94E00E9452
:104B5000B8001092AC048091A0048F5F82310CF0F9
:104B60005FC18093A0048091A0048750833010F42B
:104B70001093A00480919D04882309F454C1E0910E
:104B8000A0048E2FEE0F990BAA0BBB0BFC013197E3
:104B9000E131F10508F457C10E949416C090B204A7
:104BA000D090B304E090B404F090B504DC01CB01E4
:104BB0008C199D09AE09BF09893B9B40A105B10530
:104BC00008F49BC18091A0048A300CF096C143E0A8
:104BD00066E970E080EB94E00E94B80060E671E066
:104BE00081E00E94E9008AE08093A004F090AC0488
:104BF000FF2009F470CA3AE0F31609F46CCA41E0E8
:104C000062E370E088E592E00E94B8008F2D90E0AA
:104C1000FC013197E131F10508F05DCAE35CFF4F1B
:104C20000C94D3290E94AB0656CA0E94640553CA4D
:104C30008091B50581278093B50580919F048823D5
:104C400061F010929F0410927F0410927E041092E3
:104C50008104109280040E94C30B0E949D043BCAF1
:104C600090919D0480919A04992339F09091A50523
:104C7000911103C08F5F837001C0812780939A04D4
:104C800020919A0421FF09C08091A8059091A9055F
:104C9000909361048093600404C0109261041092A8
:104CA000600420FF03C08091A40502C08091A30589
:104CB0000E94970610CA85E08093AB040E94941668
:104CC0002091BC053091BD05DC01CB01820F931F03
:104CD000A11DB11D8093960490939704A09398040E
:104CE000B09399042091B6053091B705A8EEB3E0D2
:104CF0000E94B02960938E0470938F048093900477
:104D00009093910461EB72E019C047E04093AB04CB
:104D10000E9494162091BC053091BD05DC01CB01A9
:104D2000820F931FA11DB11D809396049093970449
:104D3000A0939804B09399046FEB72E081E00E9415
:104D4000E900C9C9109362040E94A20CC4C910935F
:104D500062040E94610FBFC9109261041092600446
:104D600010929A040E9480058091A3050AC01092B7
:104D700061041092600410939A040E94800580914F
:104D8000A4050E9497060E946109A5C910929A0481
:104D90008091A30504C010939A048091A4050E94F9
:104DA00097060E941A0697C9109362040E94101277
:104DB00092C98091A904811194C9CAC00E94851A20
:104DC00098C980919F04811199C980919E04811195
:104DD00095C965EC73E081E00E94E9008FC984E029
:104DE0000E941D15892B09F05CC941E062E370E067
:104DF00080EB94E00E94B80010939E040E949D04F2
:104E000061E571E081E00E94E90064EF71E080E01B
:104E100090E00E945A161092A0041092AD045BC953
:104E20000093A004A0CE8091A004823019F484E005
:104E30008093A0048091A0048C3009F0A0CE6DE096
:104E40006093A0049CCEE25BFF4F0C94D32968EFE3
:104E500071E002C062E072E081E00E94E9009CCE55
:104E600069E072E0F9CF66E172E0F6CF62E272E0EB
:104E7000F3CF62E372E0F0CF62E472E0EDCF62E57F
:104E800072E0EACF60E672E0E7CF60E772E0E4CF7D
:104E900060E872E0E1CF60E972E0DECF60EA72E0E4
:104EA000DBCF0E949416C090B204D090B304E0907F
:104EB000B404F090B504DC01CB018C199D09AE0956
:104EC000BF0989359240A105B10508F465CE0E945D
:104ED0009416DC01CB018C199D09AE09BF09803203
:104EE0009340A105B10508F057CE8091A0048A3007
:104EF0000CF052CE6BE073E0AFCF0E949416DC0151
:104F0000CB018C199D09AE09BF098D3D9540A105C6
:104F1000B10508F46BCE8091A0048B300CF466CE02
:104F200043E066E970E080EB94E00E94B8004FEF48
:104F30004093A0041092AD0466E173E081E00E940A
:104F4000E9006CEB72E080E090E00E945A164ECED1
:104F500058E05093AB040E949416DC01CB01885EAC
:104F60009340A109B1098093960490939704A0936C
:104F70009804B093990480919F04882309F4B1C8E0
:104F80000E9464050E94860B90938D0480938C048C
:104F9000A8C8C0908E04D0908F04E0909004F09048
:104FA0009104CB01072E000CAA0BBB0B8C0D9D1D91
:104FB000AE1DBF1DC090C105D090C205E090C305D5
:104FC000F090C405C816D906EA06FB0608F0CFCC57
:104FD0002A5031092CC09DEEE91697E2F9060CF42F
:104FE000C6CC683EE3E07E070CF0C1CCC0908E04D6
:104FF000D0908F04E0909004F0909104CB01072EA4
:10500000000CAA0BBB0B8C0D9D1DAE1DBF1DC090CF
:10501000C505D090C605E090C705F090C8058C1571
:105020009D05AE05BF0508F0A2CC265F3F4F30932B
:105030009304209392049BCC61E073E0A9CC10937D
:105040000E011092960410929704109298041092F8
:10505000990485E00E9476151092AB048091940427
:1050600090919504092E000CAA0BBB0B40918E0465
:1050700050918F046091900470919104840F951F5A
:10508000A61FB71F80938E0490938F04A093900463
:10509000B093910410929504109294040E94C30B53
:1050A0000E94860B90938D0480938C048091A004C1
:1050B0008A3009F078CC60E671E081E00E94E90076
:1050C00072CCE9E7F5E01382128288EE93E0A0E06B
:1050D000B0E084839583A683B78388E291E09183CF
:1050E0008083EDE9F5E080E181838CED95E09383A9
:1050F000828387E296E09583848384E0868388E0D8
:10510000878391E0908722E330E03287218720E295
:1051100033E03487238748E058EB6CE670E045873E
:1051200056876787708B418B528B638B748B158A84
:10513000168A178A108E2CEB3BE1328F218F2EEED0
:105140003BE1348F238F28EE33E0368F258F24EF19
:1051500031E030A3278F2EE531E032A321A313A243
:1051600040EC5FEC6AE670E044A355A366A377A326
:1051700040EA53E66FE670E040A751A762A773A725
:1051800014A615A6E5E8F5E0138212822AE331E0C1
:105190003183208384838FEF858389E086838AE04F
:1051A00087838BE080878CE081878DE08287138600
:1051B000148615861686178661E0CF010C94E219D5
:1051C000BB274A3031F4992322F4BDE290958195B2
:1051D0009F4F0C941D29BB272A3051F4992342F488
:1051E000BDE290958095709561957F4F8F4F9F4F51
:1051F0000C94FB28BB27FA01A62F621771058105C5
:105200009105330B30FB66F0AA27660F771F881FC6
:10521000991FAA1FA21710F0A21B63953850A9F777
:10522000A05DAA3308F0A95DA19336F7B111B1933F
:105230001082CA010C943629BB27FB015527AA27E7
:10524000880F991FAA1FA41710F0A41B8395505113
:10525000B9F7A05DAA3308F0A95DA193009779F78B
:10526000B111B1931192CB010C943629DC01FC01F0
:10527000672F71917723E1F7329704C07C916D938A
:1052800070836291AE17BF07C8F30895F999FECFF6
:1052900092BD81BDF89A992780B50895262FF99976
:1052A000FECF1FBA92BD81BD20BD0FB6F894FA9A09
:1052B000F99A0FBE01960895052E97FB1EF40094EF
:1052C0000E94732957FD07D00E948E2907FC03D046
:1052D0004EF40C94732950954095309521953F4F8D
:1052E0004F4F5F4F089590958095709561957F4FD2
:1052F0008F4F9F4F08950E94B029A59F900DB49F96
:10530000900DA49F800D911D11240895B7FF0C945A
:105310007B290E947B29821B930B0895A1E21A2E00
:10532000AA1BBB1BFD010DC0AA1FBB1FEE1FFF1F49
:10533000A217B307E407F50720F0A21BB30BE40B99
:10534000F50B661F771F881F991F1A9469F76095E0
:105350007095809590959B01AC01BD01CF0108959A
:10536000A29FB001B39FC001A39F700D811D1124A6
:10537000911DB29F700D811D1124911D089597FB01
:10538000072E16F4009407D077FD09D00E94E0297B
:1053900007FC05D03EF4909581959F4F0895709538
:1053A00061957F4F0895EE0FFF1F0590F491E02D5A
:1053B00009940E94B029B7FF0895821B930B0895AA
:1053C000AA1BBB1B51E107C0AA1FBB1FA617B7072B
:1053D00010F0A61BB70B881F991F5A95A9F7809547
:1053E0009095BC01CD01089581E090E0F8940C9473
:1053F000242AFB01DC010D900020E9F711970190B0
:105400000D920020E1F70895FB01DC018D910190E0
:1054100080190110D9F3990B0895FB01DC0101906B
:105420000D920020E1F70895FB01DC010D900020B2
:10543000E9F711974150504028F0019000200D925B
:0C544000C9F708951C920895F894FFCF5E
:10544C000F0300010101015F140160566C000101A2
:10545C005F145F145F145F145F14010101C07027A7
:10546C0034FF01FF00000000E814B8141815921462
:10547C00B014A1149314000000006A17E613181559
:10548C00171543572D737065656420002057504DD8
:10549C00006469616C206973206C6F636B656400D8
:1054AC002D2D2D2053455454494E4753202D2D2D31
:1054BC00004120004220002043574C002043575508
:1054CC000020545800205350006472697665206C9B
:1054DC006576656C20006D41006F6666736574209F
:1054EC000020487A00636F727220002070706D008B
:1054FC0052616475696E6F2076312E32382E310010
:10550C0056464F20756E63616C6962726174656496
:10551C000043616C6962726174696E673A2053650D
:10552C007400746F207A65726F6265617400564600
:10553C004F20413D42202100537761702056464F49
:10554C007300524954204F4E0053504C4954204F35
:10555C004E2F4F464600537769746368206D6F6415
:10556C006500537461727420667265712073636197
:10557C006E004D6F6E69746F722056464F20412F2E
:10558C004200536574207363616E20706172616DAB
:10559C00730053657420435720706172616D730002
:1055AC004C53422063616C6962726174696F6E0066
:1055BC005553422063616C6962726174696F6E004D
:1055CC0056464F206472697665202D204C5342005C
:1055DC0056464F206472697665202D205553420043
:1055EC005365742074756E696E672072616E6765A1
:1055FC000066726571207363616E6E696E6700413F
:10560C002F42206D6F6E69746F72696E67006F75D3
:10561C0074206F662062616E64212100524954200F
:10562C00003C3C3C3C3C3C3C0020202020202020EA
:10563C0020203E3E3E3E3E3E3E0053504F54202BDB
:10564C002046494E452054554E45005265736574AD
:10565C002056464F7300202D2D2D204E4F524D417C
:10566C004C202D2D2D006C6F6164696E6720737456
:10567C00616E646172640073657474696E67732E15
:10568C002E2E006C6F7765722000206B487A0075A7
:10569C00707065722000737465702000206D73004B
:1056AC004B65793A20007374726169676874007293
:1056BC0065762E20706164646C65007265762E20B0
:1056CC00627567004175746F2D73706163653A2064
:1056DC0000746F756368206B65796572204F464660
:1056EC0000546F7563682073656E736F7200736519
:1056FC006E7369746976697479200053656D692DD0
:10570C0051534B3A200051534B2064656C61792006
:10571C000073696465746F6E6520006D696E20009E
:10572C006D61782000706F74207370616E2000744E
:10573C006F7563682073656E736F7273006E6F7430
:10574C0020646574656374656400746F75636820A8
:10575C006B65792063616C69627200444954200066
:0C576C002C2044414820002075730000F0
:107800000C94343C0C94513C0C94513C0C94513CE1
:107810000C94513C0C94513C0C94513C0C94513CB4
:107820000C94513C0C94513C0C94513C0C94513CA4
:107830000C94513C0C94513C0C94513C0C94513C94
:107840000C94513C0C94513C0C94513C0C94513C84
:107850000C94513C0C94513C0C94513C0C94513C74
:107860000C94513C0C94513C11241FBECFEFD8E036
:10787000DEBFCDBF11E0A0E0B1E0ECE9FFE702C060
:1078800005900D92A230B107D9F712E0A2E0B1E065
:1078900001C01D92AD30B107E1F70E942D3D0C945F
:1078A000CC3F0C94003C982F959595959595959582
:1078B000905D8F708A307CF0282F295A8091C0000B
:1078C00085FFFCCF9093C6008091C00085FFFCCF60
:1078D0002093C6000895282F205DF0CF982F809127
:1078E000C00085FFFCCF9093C6000895EF92FF92F1
:1078F0000F931F93EE24FF2487018091C00087FD22
:1079000017C00894E11CF11C011D111D81E4E8164B
:1079100082E4F8068FE0080780E0180770F3E09132
:107920000401F091050109958091C00087FFE9CF1E
:107930008091C6001F910F91FF90EF9008950E94D3
:10794000763C982F8091C00085FFFCCF9093C600B5
:1079500091362CF490330CF09053892F089597555D
:10796000892F08951F930E949F3C182F0E949F3CCF
:107970001295107F810F1F9108951F93182F882350
:1079800021F00E94763C1150E1F71F9108951F935A
:10799000182F0E94763C803249F0809103018F5F5E
:1079A000809303018530C1F01F9108958091C0003C
:1079B00085FFFCCF84E18093C6008091C00085FFE5
:1079C000FCCF1093C6008091C00085FFFCCF80E102
:1079D0008093C6001F910895E0910401F091050184
:1079E00009951F9108950E94763C803241F0809164
:1079F00003018F5F80930301853081F008958091AA
:107A0000C00085FFFCCF84E18093C6008091C00058
:107A100085FFFCCF80E18093C6000895E0910401CA
:107A2000F09105010995089540E951E08823A1F0FE
:107A30002D9A28EE33E0FA013197F1F721503040CA
:107A4000D1F72D9828EE33E0FA013197F1F7215064
:107A50003040D1F7815061F708953F924F925F9285
:107A60006F927F928F929F92AF92BF92CF92DF924E
:107A7000EF92FF920F931F93CF93DF93000080E16B
:107A80008093C4001092C50088E18093C10086E015
:107A90008093C2005098589A259A81E00E94143D24
:107AA00024E1F22E9EE1E92E85E9D82E0FE0C02ECA
:107AB00010E1B12EAA24A394B1E49B2EA6E58A2E50
:107AC000F2E57F2EE0E26E2E79E4572E63E5462E36
:107AD00050E5352E0E94763C8033B1F18133B9F107
:107AE000803409F46FC0813409F476C0823409F41B
:107AF00085C0853409F488C0803531F1823521F1A3
:107B0000813511F1853509F485C0863509F48DC0BC
:107B1000843609F496C0843709F403C1853709F423
:107B200072C1863709F466C0809103018F5F80932C
:107B30000301853079F6E0910401F0910501099582
:107B40000E94763C803351F60E94F33CC3CF0E94E2
:107B5000763C803249F78091C00085FFFCCFF092DF
