:100000000C9463000C948B000C948B000C948B006C
:100010000C94C21C0C948B000C948B000C94661CEA
:100020000C948B000C948B000C948B000C948B0024
:100030000C948B000C948B000C948B000C948B0014
:100040000C941C1C0C948B000C948B000C948B0057
:100050000C948B000C948B000C948B000C948B00F4
:100060000C941A1D0C948B00000000002400270043
:100070002A000000000023002600290000000008DC
:10008000000201000003040700000000000000005F
:10009000010204081020408001020408102001021F
:1000A0000408102000000000250028002B00040494
:1000B0000404040404040202020202020303030310
:1000C00003030200391E11241FBECFEFD8E0DEBFAC
:1000D000CDBF14E0A0E0B1E0E2E9F4E502C0059094
:1000E0000D92A835B107D9F726E0A8E5B4E001C024
:1000F0001D92A232B207E1F710E0C3E6D0E004C0DF
:100100002197FE010E94FB29C236D107C9F70E9440
:10011000B81E0C94472A0C9400008230910538F0E8
:10012000880F991F880F991F05970197F1F7089578
:100130008091220120E4829FC00111248760809376
:100140007C0080917A00806480937A0080917A00AC
:1001500086FDFCCF809178009091790008952091E0
:10016000BD0581E0213208F044C0809199058111DC
:10017000FCCF8091BC0592E09093990591E090931B
:1001800098059FEF909397051092960520939505FB
:10019000ACE9B5E0E5E7F5E090E0291331C0109255
:1001A000740590917405880F892B80937405809154
:1001B0007305813049F51092730580917405809321
:1001C000BB008091BC0083FDF8CF85EC8093BC0020
:1001D000809199058230E1F3809197058F3FB1F0CE
:1001E000809197058032A1F080919705803391F03E
:1001F00084E010929B051092BD0510929A05089517
:100200003D9131939F5FC9CF85EEE0CF80E0F1CF84
:1002100082E0EFCF83E0EDCF833081F028F48130AE
:1002200099F08230A9F008958730A9F08830C9F09C
:100230008430B1F4809180008F7D03C08091800074
:100240008F7780938000089584B58F7784BD08955B
:1002500084B58F7DFBCF8091B0008F778093B00005
:1002600008958091B0008F7DF9CFCF93DF93282F31
:1002700030E0F901E458FF4F8491F901E057FF4F56
:10028000D491F901E255FF4FC491CC23A1F0811123
:100290000E940C01EC2FF0E0EE0FFF1FEE58FF4F15
:1002A000A591B491EC91ED2381E090E009F480E018
:1002B000DF91CF91089580E090E0FACF1F93CF9324
:1002C000DF93282F30E0F901E458FF4F8491F901C2
:1002D000E057FF4FD491F901E255FF4FC491CC2371
:1002E000A9F0162F81110E940C01EC2FF0E0EE0F07
:1002F000FF1FEC55FF4FA591B4918FB7F894EC9187
:10030000111108C0D095DE23DC938FBFDF91CF9110
:100310001F910895DE2BF8CFCF93DF9390E0FC017F
:10032000E057FF4F249182559F4FFC018491882311
:10033000C9F090E0880F991FFC01E859FF4FA59183
:10034000B491FC01EC55FF4FC591D49161110DC0E2
:100350009FB7F8948C91209582238C9388812823D1
:1003600028839FBFDF91CF910895623051F49FB7EA
:10037000F8943C91822F809583238C93E8812E2BD7
:10038000EFCF8FB7F894EC912E2B2C938FBFEACF41
:100390008F929F92AF92BF92CF92DF92EF92FF9295
:1003A000CF936C0180912301853069F08F3F09F470
:1003B00070C0CF91FF90EF90DF90CF90BF90AF9043
:1003C0009F908F900895E2ECF0E0C491C7FDF1CFCB
:1003D00061E085E00E948C01CC2319F0C23009F065
:1003E00022C1F12CE12C60E072E18AE790E0A701E4
:1003F00096010E94842949015A01DA01C901019735
:10040000A109B1098F3F9105A105B10509F00CF4CF
:10041000EEC060E472E48FE090E0A70196010E94D4
:1004200084292150310941095109C23009F0A0C085
:1004300082E02F3F31054105510509F00CF488C1D8
:1004400060E970ED83E090E0A70196010E948429A5
:10045000215031094109510983E02F3F3105410500
:10046000510509F00CF474C168E478EE81E090E085
:10047000A70196010E94842921503109410951099F
:100480002F3F31054105510511F00CF08FC084E07C
:100490005FC185E080932301E2ECF0E0C491CF3F9F
:1004A00009F487CFC13021F150F0C23009F43EC0C9
:1004B000C7FD7FCF61E085E00E948C018FCF14BC27
:1004C00015BC84B5826084BD85B5816085BDE3EBD4
:1004D000F0E0E491F0E0EE0FFF1FEC55FF4F859147
:1004E0009491E5E9F0E0E491E093C205C0E070CFBB
:1004F000109280001092810080918100886080932A
:10050000810080918100816080938100E3EBF0E0C5
:10051000E491F0E0EE0FFF1FEC55FF4F85919491B1
:10052000E5E9F0E0E491E093C10552CF1092B0000C
:100530001092B1008091B00082608093B0008091F1
:10054000B10081608093B100E3EBF0E0E491F0E072
:10055000EE0FFF1FEC55FF4F859194919093C005CE
:100560008093BF05E5E9F0E0E491E093BE0530CF6C
:100570002F3F31054105510509F00CF452C068E4E4
:1005800078EE81E090E0A70196010E948429215035
:10059000310941095109CC2309F4AFC02F3F31057E
:1005A0004105510511F00CF0B0C071CF64E274EF59
:1005B00080E090E0A70196010E9484292150310932
:1005C0004109510985E02F3F31054105510509F0E9
:1005D00008F4BEC062E17AE780E090E0A7019601EE
:1005E0000E94842921503109410951099CC09C0174
:1005F00081E0C111ADC095B5987F892B85BD27BD20
:100600008FEF9FEFDC018093CB059093CC05A093F7
:10061000CD05B093CE0580916E00826080936E0010
:10062000C8CE82E0E6CFF12CE12C60E072E18AE7EF
:1006300090E0A70196010E948429215031094109C7
:10064000510991E02115310581E0480751056CF011
:1006500068E478EE81E090E0A70196010E94842989
:10066000215031094109510993E0C13009F076C0A8
:1006700080918100887F892B80938100309389004D
:10068000209388008FEF9FEFDC018093C705909344
:10069000C805A093C905B093CA0580916F00826018
:1006A00080936F0086CE2093B3008FEF9FEFDC0125
:1006B0008093C3059093C405A093C505B093C60568
:1006C0008091700082608093700073CE84E02F3F31
:1006D00031054105510509F008F48DCF9AE0B59434
:1006E000A794979487949A95D1F7A50194012150E6
:1006F00031094109510985E07ECF83E02F3F310563
:100700004105510509F00CF476CF62E17AE780E00B
:1007100090E0A70196010E948429215031094109E6
:100720005109CC2399F286E02F3F3105410551054F
:1007300079F070F08AE0B594A794979487948A959D
:10074000D1F7A5019401215031094109510987E0F0
:100750009091B100987F892B8093B100C13009F44A
:100760008DCFC23009F49FCFC11123CE48CF3FB700
:10077000F89480916F0590917005A0917105B091EA
:10078000720526B5A89B05C02F3F19F00196A11D43
:10079000B11D3FBFBA2FA92F982F8827BC01CD01CB
:1007A000620F711D811D911D42E0660F771F881F2A
:1007B000991F4A95D1F708958F929F92AF92BF9259
:1007C000CF92DF92EF92FF926B017C010E94B70300
:1007D0004B015C01C114D104E104F104B9F00E94A1
:1007E000B703681979098A099B09683E7340810536
:1007F000910580F321E0C21AD108E108F10888EEE2
:10080000880E83E0981EA11CB11CE4CFFF90EF90EE
:10081000DF90CF90BF90AF909F908F9008952FB7AB
:10082000F89460916B0570916C0580916D059091C5
:100830006E052FBF089581E0809384040895089584
:10084000089508959091230189130BC0E2ECF0E024
:10085000E4919FEF90932301E13049F028F0E230DA
:1008600061F060E00C945E0110926E00FACF9091FE
:100870006F009D7F90936F00F4CF909170009D7FEB
:100880009093700091E09093B0009091B100987FA8
:1008900094609093B1001092B300E3CFAF92BF92F7
:1008A000CF92DF92EF92FF920F931F93CF93DF933C
:1008B0006C017B018B01040F151FEB015E01AE186B
:1008C000BF08C017D10759F06991D601ED91FC918D
:1008D0000190F081E02DC6010995892B79F7C501BA
:1008E000DF91CF911F910F91FF90EF90DF90CF900C
:1008F000BF90AF900895089585ED8093BC008091DE
:10090000BC0084FDFCCF1092990508952091DD0470
:10091000260F3327331F21323105ECF4209199053E
:10092000FC0190E080E0243069F082E00895A0911D
:10093000DD042191AC0143545B4FA40FB52FB11DD1
:100940002C930196861798F38091DD04680F6093CD
:10095000DD0480E0089581E008950895E0910805A0
:1009600080910705E81730F4F0E0E356FB4F8081F3
:1009700090E008958FEF9FEF089590910805809182
:1009800007052FEF3FEF981748F4E92FF0E0E35603
:10099000FB4F208130E09F5F90930805C9010895C7
:1009A0008091070590910805891B990B0895CF92B6
:1009B000DF92EF92FF920F931F93CF93DF937C010F
:1009C000CB018A0120919A05222389F0EB016B016A
:1009D000C40ED51ECC15DD0569F06991D701ED91E6
:1009E000FC910190F081E02DC7010995F3CF642FB0
:1009F0000E948604C801DF91CF911F910F91FF9053
:100A0000EF90DF90CF900895CF93DF931F92CDB7F3
:100A1000DEB7698320919A052223F9F02091BD0564
:100A2000203258F021E030E0FC013383228390E053
:100A300080E00F90DF91CF91089580919B05E82F82
:100A4000F0E0E456FA4F998190838F5F80939B0585
:100A50008093BD0581E090E0ECCF61E0CE0101968E
:100A60000E948604F7CF0F931F93CF93DF938B01E0
:100A700091E090939A0590E69093BC0510929B05A7
:100A80001092BD05682F8FEC95E00E940405E801E7
:100A900019E0115031F069918FEC95E00E94040546
:100AA000F8CFDF91CF911F910F910C94AF0090E0A0
:100AB00080E008950F931F93CF9360E082E00E943F
:100AC0005E0180919C0490E0499620912006821B53
:100AD00091090E948D008FE00E943501C09196041B
:100AE000892B09F48CC00E940F04609397047093C3
:100AF00098048093990490939A04C1111EC00E9497
:100B00000F04009192041091930420919404309169
:100B10009504601B710B820B930B6230710581058C
:100B2000910558F081E08093960410928E04109203
:100B30008F04109290041092910461E082E00E9470
:100B40005E0183EC90E00197F1F760E082E00E94A3
:100B50005E0180919B0490E0499620912006821BC3
:100B600091090E948D0083E00E943501C0918904A3
:100B7000892B09F468C00E940F0460938A04709363
:100B80008B0480938C0490938D04C1111EC00E942D
:100B90000F04009185041091860420918704309100
:100BA0008804601B710B820B930B62307105810509
:100BB000910558F081E08093890410928E04109280
:100BC0008F04109290041092910461E082E00E94E0
:100BD0005E0183EC90E00197F1F780911606823078
:100BE00011F0843041F4809189049091960490939F
:100BF000890480939604CF911F910F9108950E94CC
:100C00000F046093920470939304809394049093E0
:100C10009504CC2309F491CF0E940F04009197040E
:100C2000109198042091990430919A04601B710BE3
:100C3000820B930B6B3071058105910508F47DCF14
:100C4000109296047ACF0E940F04609385047093EB
:100C500086048093870490938804CC2309F4B5CF4D
:100C60000E940F0400918A0410918B0420918C043F
:100C700030918D04601B710B820B930B6B307105EF
:100C80008105910508F4A1CF109289049ECFCF92DF
:100C9000DF92EF92FF92CF93C4E6C12CD12C760164
:100CA00080918404882361F01092840480914C0523
:100CB00090914D05CF91FF90EF90DF90CF900895E8
:100CC0000E949800092E000CAA0BBB0BC80ED91E5F
:100CD000EA1EFB1EC15021F7C701B6016B5F7F4FB3
:100CE0008F4F9F4F2AE030E040E050E00E94B6294D
:100CF000A0E1B7E20E94A32926EF37E240E050E0EE
:100D00000E94B629C901D6CFCF92DF92EF92FF920F
:100D10000F931F93CF93DF938C01D42FC0E06B010F
:100D2000770FEE08FF08C8010E94C801C701B6018D
:100D30000E94DC0385E00E942204C701B6010E94E4
:100D4000DC03CF5FDC13EFCFDF91CF911F910F91C9
:100D5000FF90EF90DF90CF900895CF93C62F91E052
:100D600090939A0590E69093BC0510929B05109283
:100D7000BD05682F8FEC95E00E9404056C2F8FEC69
:100D800095E00E940405CF910C94AF004F925F92C2
:100D90006F927F928F929F92AF92BF92CF92DF928B
:100DA000EF92FF921F93CF93DF93CDB7DEB72897D3
:100DB0000FB6F894DEBF0FBECDBF6B017C01109162
:100DC0002101DC01CB018052914AA740B109813257
:100DD0009449A747B640F0F0146010932101609148
:100DE000210183E00E94AD0628960FB6F894DEBF7D
:100DF0000FBECDBFDF91CF911F91FF90EF90DF909D
:100E0000CF90BF90AF909F908F907F906F905F90AA
:100E10004F90089560911D0170911E0180911F01F6
:100E200090912001A70196010E94B62949015A011B
:100E30002601370144245524E0EF6E224528462838
:100E4000472849F09695879577956795F694E794A6
:100E5000D794C794EDCF27E0660F771F881F991F9F
:100E60002A95D1F7A70196010E94B629E7E0880CE0
:100E7000991CAA1CBB1CEA95D1F7E2E09E1AA108B6
:100E8000B108820E931EA41EB51ED982CA82AB82FF
:100E90009C828D82F4E0CC0CDD1CEE1CFF1CFA95CC
:100EA000D1F7CC24DD2420EFE222FF24E82AEE82D1
:100EB0007F836887BE016F5F7F4F8AE30E9433059F
:100EC00060911C016C6082E10E94AD061B7F85CFA2
:100ED000FF920F931F93CF93DF9303EF15E0D0E0C2
:100EE000C0E0F801F1908F01CE010E946E29F81642
:100EF00021F06F2DCE010E9476292196CF32D105A7
:100F000081F783EF95E0DF91CF911F910F91FF90D3
:100F10000895CF93DF93EC0160E08E810E945E0123
:100F200061E08E810E945E0160E08E810E945E0120
:100F30008BE891E00197F1F7DF91CF910895CF927F
:100F4000DF92EF92FF920F931F93CF93DF936C0189
:100F50007C0187E0E80EF11CD0E0C0E0062F10E035
:100F6000B8010C2E02C0759567950A94E2F761707E
:100F7000F70181917F010E945E012196C430D10565
:100F800079F7C601DF91CF911F910F91FF90EF90FC
:100F9000DF90CF900C948907CF92DF92EF92FF926F
:100FA0000F931F93CF93DF93EC01F62E642F8C8168
:100FB0000E945E018D818F3F19F060E00E945E010A
:100FC0000F2D10E08F8584FF25C06E0187E0C80ECD
:100FD000D11CF12CE12CB8010E2C02C0759567953F
:100FE0000A94E2F76170F60181916F010E945E013F
:100FF000FFEFEF1AFF0A88E0E816F10461F7CE016F
:10100000DF91CF911F910F91FF90EF90DF90CF90E4
:101010000C948907B80184E0759567958A95E1F786
:10102000CE010E949F076F2DCE01DF91CF911F91BE
:101030000F91FF90EF90DF90CF900C949F0740E0CE
:10104000682F8BED95E00C94CC07CF93DF93823023
:1010500029F49091EA0598609093EA058093EE0553
:101060001092EF0580E48093F00580E18093F10514
:1010700080E58093F20561E08091DF050E948C019C
:101080008091E0058F3F19F061E00E948C0161E0E2
:101090008091E1050E948C01CBEDD5E09E012B5D96
:1010A00035408091EA0584FD0BC084E090E02196F4
:1010B0002817390744F461E08E810E948C01EECF3D
:1010C00088E090E0F4CF8BE39DE00197F1F760E0DA
:1010D0008091DF050E945E0160E08091E1050E9441
:1010E0005E018091E0058F3F19F060E00E945E0193
:1010F0008091EA0584FD39C063E08BED95E00E94A4
:101100009F07CBE4D6E4CE010197F1F763E08BEDC6
:1011100095E00E949F072197F1F763E08BED95E042
:101120000E949F0783E592E00197F1F762E08BED63
:1011300095E00E949F078091EA0580620E941F0847
:1011400084E08093EB058CE00E941F0881E00E9400
:101150001F088BE39FE10197F1F782E08093EC0594
:1011600086E0DF91CF910C941F0880620E941F08D7
:101170008BE496E40197F1F78091EA0580620E9482
:101180001F0883E592E00197F1F78091EA058062FC
:101190000E941F08D0CF41E00E94CC0781E090E080
:1011A0000895EF92FF920F931F93CF93DF93C82F71
:1011B0008B0121E18202C00111249C01285A3B4F7E
:1011C0007901B901C8010E94272A892B79F1EC2FF6
:1011D0008091EE05C81710F0EFEFE80FF0E0E55250
:1011E000FA4F848980680E941F08F801019000204E
:1011F000E9F73197AF01401B510BB8018BED95E03A
:101200000E944E04B801C7010E94302AE8010990EB
:101210000020E9F72197C01BC03140F441E060E2B3
:101220008BED95E00E94CC07CF5FF6CFDF91CF9199
:101230001F910F91FF90EF90089562E471E080E0BC
:101240000E94D10863E571E081E00E94D1080E940C
:10125000680768EE73E080E090E00C94DC034F9246
:101260005F926F927F928F929F92AF92BF92CF9236
:10127000DF92EF92FF9281E10E943501892B19F4F0
:1012800081E08093820480918204882371F081E15F
:101290000E943501892B49F08091F405823328F4AE
:1012A000109282048F5F8093F40584E00E943501E0
:1012B000892B19F481E08093810480918104882333
:1012C00071F084E00E943501892B49F08091F4058A
:1012D000823028F01092810481508093F40580912F
:1012E0001606833020F180912006882369F08091D2
:1012F0002006811107C110925F05109260051092BF
:1013000061051092620513C0E0910501F09106019C
:1013100080810E943501892B51F70E940F04609350
:101320005F0570936005809361059093620520913D
:10133000F40530E050E040E060EB74E080E090E0E5
:101340000E94B62969017A0140907D0450907E0484
:1013500060907F0470908004411451046104710412
:1013600009F0F3C00E940F0480906305909064051B
:10137000A0906505B0906605681979098A099B09EE
:101380006C157D058E059F0508F0C1C061E086E003
:101390000E945E018091FE059091FF050E94C801A8
:1013A00081E080937C0480918E0490918F04A091C1
:1013B0009004B0919104892B8A2B8B2B09F04FC09C
:1013C00080917D0490917E04A0917F04B09180046F
:1013D000892B8A2B8B2B09F0DEC10E940F04809091
:1013E000630590906405A0906505B0906605681946
:1013F00079098A099B096C157D058E059F0548F4BE
:1014000080912006882309F4B2C1809120068111C1
:10141000E0C10E940F0480905F0590906005A0904D
:101420006105B09062059B01AC01281939094A0990
:101430005B0949015A01A3E0B0E0A70196010E94AF
:10144000A32986169706A806B90648F480912006B7
:10145000882309F4C3C1809120068111E1C1C090A5
:101460008E04D0908F04E0909004F09091048091CD
:101470002006811108C2C114D104E104F10409F06D
:101480001AC280917D0490917E04A0917F04B09156
:101490008004892B8A2B8B2B09F029C280915A0555
:1014A00081115BC280915905882309F442C2809161
:1014B000F4054AE06AE275E090E00E9408296FE5D1
:1014C00071E089E195E00E94302A6AE275E089E1E5
:1014D00095E00E941C2A69E671E089E195E00E948E
:1014E0001C2A69E175E081E0FF90EF90DF90CF90DA
:1014F000BF90AF909F908F907F906F905F904F9034
:101500000C94D10880918904811107CFF4CE0E94F8
:101510000F0480905F0590906005A0906105B090E9
:1015200062059B01AC01281939094A095B09490187
:101530005A01A3E0B0E0A70196010E94A3298616F4
:101540009706A806B90608F421CF60E086E00E945D
:101550005E0185E00E94220445284628472851F470
:101560000E940F0460937D0470937E0480937F0437
:10157000909380040E940F0480907D0490907E04DC
:10158000A0907F04B09080042B013C0148185908BA
:101590006A087B08A0910401B0E0A70196010E94AF
:1015A000A329641575058605970508F0FCCE4091C2
:1015B00063055091640560916505709166058091A1
:1015C0005F0590916005A0916105B0916205481793
:1015D00059076A077B0708F093C080917B04882332
:1015E00081F00E940F0460936305709364058093FB
:1015F00065059093660581E08093590510927B0400
:101600001BC0809120068823D1F080912006811193
:1016100020C090917A04992309F10E940F046093ED
:101620005F0570936005809361059093620581E08A
:101630008093590510927A0480937C043EC0E09117
:101640000201F091030180810E943501892B49F24A
:10165000DCCF909196049111C4CFDBCF882309F49D
:101660003FC080912006811146C080911F068823CB
:1016700019F083E08093040181E080935905809301
:101680007C040E940F049B01AC01281939094A0906
:101690005B0949015A01A0910401B0E0A70196013C
:1016A0000E94A329681579058A059B0508F07BCE61
:1016B0001092590510927C0481E0809304011092ED
:1016C0007D0410927E0410927F0410928004109288
:1016D0008E0410928F04109290041092910463CEA5
:1016E000E0910501F091060180810E943501892B6E
:1016F00009F493CFB6CF8091890481118ECFB5CFF5
:1017000080917A04811189CF809120068823A1F0ED
:101710008091200681111BC090917B04911161CFB3
:101720008823D1F080912006882309F49ECF8091F0
:101730009604811156CF99CFE0910501F0910601F1
:1017400080810E943501892B09F467CFE1CF909108
:101750008904911162CFE0CFE0910201F091030181
:1017600080810E943501892B09F43BCFDBCFE091CA
:101770000201F091030180810E943501892B09F457
:1017800044CE0E940F0460938E0470938F04809364
:1017900090049093910480917D0490917E04A09197
:1017A0007F04B0918004892B8A2B8B2B09F431CED6
:1017B000809120068823C9F180912006811157C0AD
:1017C000C0908E04D0908F04E0909004F09091042B
:1017D00052CE8091960481111CCED3CFE0910501A9
:1017E000F091060180810E943501892B09F433CEE6
:1017F0000E940F0460938E0470938F048093900472
:101800009093910480917D0490917E04A0917F0437
:10181000B0918004892B8A2B8B2B09F420CEC8CF62
:101820008091890481111BCEE3CFE0910201F091F8
:10183000030180810E943501892B09F4BDCF80917D
:10184000200681112EC0E0910501F09106018081F2
:101850000E943501892B29F10E940F0460938E04A8
:1018600070938F048093900490939104F8CD8091AD
:101870009604882321F3C0908E04D0908F04E090CA
:101880009004F0909104CD28CE28CF2809F406CEFC
:1018900080919604811125C080918904811143C0F3
:1018A000FDCD80912006882309F48ACF8091890498
:1018B0008111E1CFD1CF0E940F046C197D098E09EF
:1018C0009F09663071058105910508F4DACDE09134
:1018D0000201F091030180810E943501892B09F0FA
:1018E000D0CD81E080937B0410927A04D7CDC114CF
:1018F000D104E104F10409F4D1CD0E940F046C1964
:101900007D098E099F09603171058105910508F4F3
:10191000C5CDE0910501F091060180810E9435015D
:10192000892B09F0BBCD81E080937A0410927B046F
:10193000B5CD80915C056EE671E08111D4CD8091CA
:101940005E056DE771E08A300CF0CDCD1092350563
:101950001092340568E672E0C6CDFF90EF90DF90FC
:10196000CF90BF90AF909F908F907F906F905F903F
:101970004F9008950F931F93CF93DF93E9E1F5E024
:1019800081E1DF011D928A95E9F7EAE2F5E08AE05C
:10199000DF011D928A95E9F700914E0510914F05E0
:1019A000209150053091510580915C05811105C051
:1019B00080916905883009F07EC080915205909130
:1019C0005305092E000CAA0BBB0BBC01CD01600F07
:1019D000711F821F931F2AE04AE255E00E942229CC
:1019E00068E672E089E195E00E94302ACAE2D5E01B
:1019F00009900020E9F7CB52D540DD278E01065033
:101A00001109A8016AE275E089E195E00E94372A90
:101A10006DE571E089E195E00E941C2AB801665DE0
:101A20007A4F43E050E089E195E00E94372A6DE566
:101A300071E089E195E00E941C2ABE01695D7A4F40
:101A400080915C05811106C08091690541E050E0FC
:101A5000883011F443E050E089E195E00E94372A94
:101A600080915805813009F442C0D0F1823009F4E8
:101A700041C0833009F441C080916705882331F06B
:101A800080915A056EE971E0882331F080910B0650
:101A9000882331F062EA71E089E195E00E941C2A16
:101AA0001092290569E175E080E0DF91CF911F91E7
:101AB0000F910C94D108C901B8016E5C7F4F8F4F14
:101AC0009F4F2AE04AE255E00E94222980910A06AF
:101AD0006EE871E0882309F485CF61E971E082CF77
:101AE0006FE973E089E195E00E941C2AC5CF6FEA97
:101AF00073E0F8CF64E971E0F5CF69E971E0F2CF06
:101B0000AF92BF92CF92DF92FF920F931F93CF932A
:101B1000DF9360E08FE00E948C0160E083E00E9430
:101B20008C0110929C0493ECC92ED12CD0919C0472
:101B3000DF5FD0939C0410E000E0C0E0AD2EB12C3C
:101B400061E082E00E945E01C6010197F1F760E06A
:101B500082E00E945E01C5010E948D008FE00E941C
:101B60003501892B19F004E610E0C1E00F5F1F4F2B
:101B7000043611052CF3CC2311F0DF3FB9F6109297
:101B80009B0483ECC82ED12CC0919B04CF5FC093E3
:101B90009B0410E000E0F12CAC2EB12C61E082E05F
:101BA0000E945E01C6010197F1F760E082E00E94A9
:101BB0005E01C5010E948D0083E00E943501892BE2
:101BC00021F004E610E0FF24F3940F5F1F4F04366A
:101BD000110524F3FF2069F1CF3FB1F61092070100
:101BE0001092200666EA71E080E00E94D10864EB62
:101BF00071E081E00E94D10860ED77E080E090E044
:101C00000E94DC030E94BA0C80912006811155C00D
:101C100062E08FE00E948C0162E083E0DF91CF916F
:101C20001F910F91FF90DF90CF90BF90AF900C94D9
:101C30008C01DF3F99F2CF3F89F2D13079F2C13088
:101C400069F28091200662EE71E0882391F261ECE6
:101C500071E080E00E94D10862ED71E089E195E0D9
:101C60000E94302A80919C044AE06AE275E090E08C
:101C70000E9408296AE275E089E195E00E941C2A29
:101C800067ED71E089E195E00E941C2A80919B0438
:101C90004AE06AE275E090E00E9408296AE275E095
:101CA00089E195E00E941C2A6EED71E089E195E0E2
:101CB0000E941C2A69E175E09CCFDF91CF911F91B2
:101CC0000F91FF90DF90CF90BF90AF9008958F92CB
:101CD0009F92AF92BF92CF92DF92EF92FF920F93BB
:101CE0001F9310925A0580914E0590914F05A09137
:101CF0005005B0915105AC01BD01405C5F4C6A4696
:101D00007109413E53496440710518F021E0209368
:101D10005A0520915B05211104C020915A0521111B
:101D20003CC0C0900C05D0900D050D2C000CEE08A9
:101D3000FF080091360510913705012E000C220B8B
:101D4000330B8090520590905305092C000CAA0883
:101D5000BB084091580540FF2CC084519A4EA844BE
:101D6000BF4FBC01CD01600F711F821F931F680D13
:101D7000791D8A1D9B1D6C197D098E099F09009193
:101D8000F5051091F605012E000C220B330B601B9C
:101D9000710B820B930B0E94C6061F910F91FF904F
:101DA000EF90DF90CF90BF90AF909F908F900C946A
:101DB000BA0C4CEE55E167EB70E0481959096A0915
:101DC0007B090C0D1D1D2E1D3F1D800F911FA21F95
:101DD000B31F8A019B01081B190B2A0B3B0BC9017E
:101DE000B801D9CF0E94670E0E9447062091FC05DA
:101DF0003091FD05DC010E94012A2AE030E040E03C
:101E000050E00E94B62980914E0590914F05A09117
:101E10005005B0915105821B930BA40BB50B809319
:101E2000150190931601A0931701B093180108951E
:101E30003F924F925F926F927F928F929F92AF925A
:101E4000BF92CF92DF92EF92FF920F931F93CF93A7
:101E5000DF930E949800EC0130900E0580911901EB
:101E600042E0882309F4C3C1341609F4F2C04315D3
:101E700078F181E0381609F470C081E10E943501E3
:101E8000892B09F028C281E0381640F043E0431561
:101E900008F008C284E0381609F40CC280910E05DF
:101EA0008F5F80930E0581E080931901DF91CF91C0
:101EB0001F910F91FF90EF90DF90CF90BF90AF9068
:101EC0009F908F907F906F905F904F903F9008957C
:101ED00043E0341609F445C184E03812CECF209196
:101EE0001206309113063093390520933805CE0140
:101EF00067EE7FEF0E94E72942E3469FC001479FBC
:101F0000900D1124820F931F9093490580934805EB
:101F10002091480530914905CE0169E170E00E94A9
:101F2000E72942E3469FC001479F900D1124820F8D
:101F3000931F97FDABC1813D47E0940714F080EDFE
:101F400097E09093130680931206C530D1050CF0EC
:101F5000A0C1892B09F491CF43C100910C061091C7
:101F60000D061093390500933805CE01D7FD019673
:101F700095958795081B190B6091170670911806A7
:101F80008091190690911A0628EE33E040E050E067
:101F90000E94B629021B130B1093490500934805B4
:101FA00000914805109149056E01D7FF03C04FEF1E
:101FB000C41AD40AD594C79488EAC81A84EED80AF9
:101FC000C00ED11E0D2C000CEE08FF086091170604
:101FD000709118068091190690911A0628EE422EEB
:101FE00023E0522E612C712CA30192010E94B6298C
:101FF00049015A01C814D904EA04FB0490F0609125
:102000001B0670911C0680911D0690911E06A3016F
:1020100092010E94B629C216D306E406F50608F41A
:10202000960130930D0620930C06C530D1050CF0B7
:10203000F0C06901F12CE12C015011098C149D04B0
:10204000AE04BF0408F019CF10934905009348056A
:1020500014CF00910E0610910F06109339050093CE
:102060003805C0900C06D0900D06F12CE12C609143
:102070001B0670911C0680911D0690911E0628EE8D
:1020800033E040E050E00E94B6292C193D094E098A
:102090005F09DE010E94AE2920E034E040E050E01C
:1020A0000E948429C20ED31EE41EF51E0C191D09C0
:1020B000109349050093480560911B0670911C061A
:1020C00080911D0690911E0628EE33E040E050E01E
:1020D0000E94B62969017A0100910C0610910D0643
:1020E0004801B12CA12C281939094A095B09DE01E4
:1020F0000E94AE2920E034E040E050E00E948429B4
:10210000280D391D4A1D5B1D809148059091490598
:102110002C01092E000C66087708420E531E641E1F
:10212000751E481459046A047B040CF490C0280FEF
:10213000391FC414D504E604F70408F4960130935B
:102140000F0620930E06C530D1050CF082C0019712
:102150000217130708F091CE909349058093480524
:102160008CCE2091100630911106309339052093C2
:102170003805CE016BEF7FEF0E94E72942E3469FCF
:10218000C001479F900D1124820F931F9093490522
:10219000809348052091480530914905CE0165E0BE
:1021A00070E00E94E72942E3469FC001479F900DDF
:1021B0001124820F931F823391050CF459C0813191
:1021C00047E2940714F080E197E290931106809320
:1021D0001006C530D1050CF04EC0C29709F44DCEA3
:1021E00022533109309349052093480546CE3416D1
:1021F00009F462CF431528F081E0381609F4D0CEF7
:102200003CCE43E0341631F284E0381609F480CE37
:1022100034CECD3FD3400CF430CE6901F12CE12C0B
:1022200060911B0670911C0680911D0690911E0600
:1022300028EE33E040E050E00E94B629C216D306F3
:10224000E406F50608F019CE0F5F1F4FFDCE98018A
:1022500076CFCD3FD3400CF410CEA90170E060E002
:102260004C155D056E057F0508F007CE019674CF0D
:1022700082E390E0AACFCD3FD3400CF4FECD803175
:10228000974209F4FACD2E5C3F4FACCF90E080E04E
:1022900058CECD3FD3400CF4F0CD803D974009F4AB
:1022A000ECCDF1CF41E062E370E088E592E00E947E
:1022B0008406F4CD1092690542E062E370E088E59F
:1022C00092E00E9484066DE771E081E00E94D108EF
:1022D0000E94F20EE3CD86E0809369051092190109
:1022E00042E0341609F456C04315C8F081E03816B0
:1022F000A9F169E175E081E0DF91CF911F910F9124
:10230000FF90EF90DF90CF90BF90AF909F908F9015
:102310007F906F905F904F903F900C94D10843E076
:10232000341609F443C084E03812E3CF4AE06AE28D
:1023300075E080911206909113060E9408296DE6BF
:1023400072E089E195E00E94302A6AE275E089E155
:1023500095E00E941C2A6FE072E017C04AE06AE232
:1023600075E080910C0690910D060E94082962EF9D
:1023700071E089E195E00E94302A6AE275E089E126
:1023800095E00E941C2A69EF71E089E195E00E94C6
:102390001C2AAFCF4AE06AE275E080910E06909168
:1023A0000F060E9408296EEF71E0E3CF4AE06AE26F
:1023B00075E080911006909111060E94082965E051
:1023C00072E089E195E00E94302A6AE275E089E1D5
:1023D00095E00E941C2A6BE072E0D7CFCF92DF928B
:1023E000EF92FF921F93CF93DF930E949800EC012E
:1023F00080911901882361F080910E05833009F4E2
:1024000061C0A0F5813009F447C0823009F457C09B
:1024100010910E05133009F4D1C008F073C01130CB
:1024200009F498C0123009F4B3C081E10E9435016B
:10243000892B09F0D7C1133009F4A2C108F05DC19E
:10244000113009F473C1123009F48CC180910E056A
:102450008F5F80930E0581E080931901DF91CF910A
:102460001F91FF90EF90DF90CF900895853081F11C
:1024700060F1863069F68091FE059091FF0590939A
:102480000D0580930C0590933905809338058C1BBE
:102490009D0B885C910931C08091580582608093C2
:1024A00058050E94BA0C8091160690E09093390569
:1024B00080933805D0934905C0934805A9CF8091F2
:1024C0001F06F3CF80912006F0CF8091FB05EDCF62
:1024D0002091140630911506309339052093380564
:1024E000CE0166EF7FEF0E94E7294AE0469FC001D8
:1024F000479F900D1124820F931F9093490580935D
:10250000480586CF153009F4B3C008F49BC01630D7
:1025100009F08BCF2091480530914905CE018853B1
:102520009F4F820F931F883C91050CF4DAC0813BCA
:1025300044E0940714F080EB94E09093FF058093BF
:10254000FE05C530D1050CF0CFC0883C910509F4DB
:102550006CCFB2C080914805909149059E01281B1F
:10256000390BC901049620913805309139054AE1AB
:10257000429FE001439FD00D11248C0F9D1F8F7748
:1025800099276AE170E00E94E729609316064DCF13
:102590008091480590914905C81BD90B2496C6FB2C
:1025A000CC24C0F8D12C8091380590913905C80E03
:1025B000D91E4C2D417040931F0637CF20914805FE
:1025C00030914905CE01821B930B68E270E00E94B6
:1025D000E7298091380590913905680F791F77FDBB
:1025E00015C06A31710514F069E170E0609320064E
:1025F000C530D105CCF461110BC062E08FE00E94C0
:102600008C0162E083E00E948C010FCF60E0EECF8E
:10261000265F3F4F309349052093480560E08FE0E7
:102620000E948C0160E0EECFCD3FD34044F0693191
:10263000A9F32A50310930934905209348056623B0
:10264000E1F2ECCF8091480590914905C81BD90B68
:102650002496C6FBEE24E0F8F12C80913805909189
:102660003905E80EF91E3E2D31703093FB05DDCEA5
:102670002091480530914905CE016AE070E00E9442
:10268000E7294AE0469FC001479F900D1124820F21
:10269000931F8A309105BCF0893E43E0940714F003
:1026A00088EE93E09093150680931406C530D1050B
:1026B0006CF4449708F4B9CE2A5031093093490597
:1026C00020934805B2CE8AE090E0ECCFCD3FD340D6
:1026D0000CF4ABCE883E934009F4A7CE265F3F4F63
:1026E000EDCF88EC90E029CFCD3FD3400CF49DCEC8
:1026F000803B944009F499CEF1CF153009F464C0C1
:1027000008F455C0163009F0A1CE1092690542E0D8
:1027100062E370E088E592E00E9484066DE771E074
:1027200081E00E94D1080E94F20E90CE41E062E367
:1027300070E088E592E00E94840668EC70E080E03A
:1027400090E00E94DC038091160681117FCE82E02A
:1027500080930E0580910701811178CE83E08093EC
:102760000E0574CE41E062E370E088E592E00E94DD
:10277000840668EC70E080E090E00E94DC03EACF21
:102780000E94800D41E062E370E088E592E00E94E3
:10279000840668EC70E080E090E00E94DC038091A9
:1027A0001401811153CE80910E058E5FD8CF809198
:1027B000FB05811109C08AE090E090931506809393
:1027C000140685E080930E0541E062E370E088E541
:1027D00092E00E94840668EC70E080E090E00E9445
:1027E000DC0334CE84E08093690510921901133024
:1027F00009F466C088F4113071F1123009F451C047
:1028000069E175E081E0DF91CF911F91FF90EF903A
:10281000DF90CF900C94D108153009F47BC008F4F8
:1028200070C0163069F74AE06AE275E08091FE05F3
:102830009091FF050E94082964E772E089E195E024
:102840000E94302A6AE275E089E195E00E941C2A24
:102850006BE072E011C063E172E089E195E00E94F3
:10286000302A809116068230B1F058F4882381F026
:1028700067E272E0813021F689E195E00E941C2A2E
:10288000BFCF833059F06EE272E08430A9F3B8CF45
:1028900069E172E0F1CF62E272E0EECF63E372E0F1
:1028A000EBCF67E372E089E195E00E94302A8091E6
:1028B0001F0669E073E08111DFCF66E174E0DCCFD1
:1028C00080912006811107C062EE71E089E195E0F8
:1028D0000E94302A95CF64E472E080E00E94D10823
:1028E000809120064AE06AE275E090E00E940829A3
:1028F00061E572E089E195E00E94302A6AE275E0C4
:10290000BBCF6EE572E089E195E00E94302A8091AC
:10291000FB05CFCF4AE06AE275E080911406909102
:1029200015060E94082969E672E089E195E00E9497
:10293000302A6AE275E089E195E00E941C2A60E194
:1029400072E09ACF4F925F926F927F928F929F9296
:10295000AF92BF92EF92FF920F931F93CF93DF93AB
:102960000E949800EC0110910E05809119018823B6
:1029700049F1123009F473C0133009F479C01130F1
:1029800091F4609117067091180680911906909144
:102990001A0628EE33E040E050E00E94B62930935A
:1029A000390520933805CE01D7FD01969595879579
:1029B0002091380530913905281B390B3093490592
:1029C00020934805123009F469C0133009F414C18A
:1029D000113009F0B4C02091480530914905CE016D
:1029E000D7FD019695958795820F931F092E000CB0
:1029F000AA0BBB0BF82E092FFA2FEB2F813345E7DB
:102A00009407A105B10528F070E3F72E05E7F0E083
:102A1000E0E04F2D502F6F2F7E2F483EE3E05E0702
:102A20006105710520F448EE53E060E070E04093EA
:102A30001706509318066093190670931A06C5304E
:102A4000D105FCF4893E9340A105B10508F477C097
:102A50002A503109309349052093480570C0609190
:102A60001B0670911C0680911D0690911E0691CF49
:102A70008091FC059091FD05909339058093380570
:102A800092CFCD3FD3400CF45AC080339547A10577
:102A9000B10508F054C0265F3F4FDCCFE0904805F9
:102AA000F0904905CE01D7FD0196959587958E0D3D
:102AB0009F1D4C01990FAA08BB08609117067091E1
:102AC00018068091190690911A0628EE33E040E02E
:102AD00050E00E94B6298091FC059091FD052901E6
:102AE0003A01480E591E611C711CD301C20188169F
:102AF0009906AA06BB0608F468C021E3821625E7FA
:102B00009206A104B10430F050E3852E55E7952ECE
:102B1000A12CB12C80921B0690921C06A0921D063F
:102B2000B0921E06C530D1050CF052C04AE0E41A3E
:102B3000F10888159905AA05BB0508F458C081E17C
:102B40000E943501892B09F0A8C0123009F47FC01A
:102B5000133009F491C0113009F520911706309116
:102B600018064091190650911A06A8EEB3E00E948B
:102B7000A329609317067093180680931906909303
:102B80001A0641E062E370E088E592E00E94840664
:102B900068EC70E080E090E00E94DC0380910E051C
:102BA0008F5F80930E0581E080931901DF91CF91B3
:102BB0001F910F91FF90EF90BF90AF909F908F90DB
:102BC0007F906F905F904F90089542015301A2CF84
:102BD000CD3FD3400CF4B3CFE0E38E16E5E79E067D
:102BE000A104B10408F0ABCF2AE0E20EF11CF09290
:102BF0004905E0924805A3CF209148053091490549
:102C0000CE01D7FD019695958795820F931F8A3047
:102C100091058CF0853F41E0940714F084EF91E03A
:102C20009093FD058093FC05C530D1053CF40A97CF
:102C300009F485CF0DCF8AE090E0F2CFCD3FD340AD
:102C40000CF47DCF843F914009F479CF24CF2091BB
:102C50001B0630911C0640911D0650911E06A8EEE1
:102C6000B3E00E94A32960931B0670931C06809317
:102C70001D0690931E0685CF1092690542E062E31F
:102C800070E088E592E00E9484066DE771E081E0E3
:102C90000E94D1080E94F20E81CF83E080936905E3
:102CA000109219011230C1F1133009F445C01130EE
:102CB00009F07CCF60911706709118068091190673
:102CC00090911A062AE04AE255E00E9422296EE716
:102CD00072E089E195E00E94302A6AE275E089E1BC
:102CE00095E00E941C2A69EF71E089E195E00E945D
:102CF0001C2A69E175E081E0DF91CF911F910F916E
:102D0000FF90EF90BF90AF909F908F907F906F90CB
:102D10005F904F900C94D10860911B0670911C0637
:102D200080911D0690911E062AE04AE255E00E941D
:102D3000222963E872E0CDCF4AE06AE275E0809133
:102D4000FC059091FD050E94082968E872E0C1CF5A
:102D500080915D0591E0892780935D05811108C010
:102D600010923505109234051092370510923605F1
:102D70000E94F20E81E08093190180910B0681116F
:102D800010920B060C94BA0C1F93CF93DF930E9402
:102D9000980020916905223089F02091580520FF84
:102DA00042C02091FA0526952150330B3093390506
:102DB0002093380590934905809348052091480554
:102DC00030914905821B930B62E370E00E94E72972
:102DD000C0913805D0913905C60FD71FC370DD27C4
:102DE00021961C2F110F1093830481E10E9435015D
:102DF000892BF9F4109269058091580580FF16C05F
:102E00001093FA0542E062E370E088E592E00E94E8
:102E100084066DE771E081E00E94D108DF91CF91D7
:102E20001F910C94F20E2091F905BDCF1093F90576
:102E3000E9CF82E080936905C150C0931C010E94D4
:102E4000670E809183044AE06AE275E090E00E9498
:102E5000082962E972E089E195E00E94302A6AE27D
:102E600075E089E195E00E941C2A6FE972E089E132
:102E700095E00E941C2A69E175E081E0DF91CF9125
:102E80001F910C94D1088695815080931C010E945B
:102E9000670E0E94670E90910A0680915805911165
:102EA00003C0809308060895809309060895409111
:102EB0004E0550914F0560915005709151058091DC
:102EC0000B0690910A069923D1F110920A064093BD
:102ED000400550934105609342057093430540912E
:102EE0004405509145056091460570914705409312
:102EF0004E0550934F056093500570935105811115
:102F000004C080910806809358058091580580FF81
:102F100036C08091FA050E944317809167058111A0
:102F200031C080915805823068F18091FE05909102
:102F3000FF0590930D0580930C050C94F20E91E023
:102F400090930A06409344055093450560934605C7
:102F500070934705409140055091410560914205AD
:102F60007091430540934E0550934F056093500573
:102F7000709351058111C9CF80910906C4CF80910A
:102F8000F905C9CF10920D0510920C05D6CFCF923E
:102F9000DF92EF92FF920E94470620914C053091FC
:102FA0004D05821B930B97FF03C091958195910965
:102FB0000997B4F0109254051092550510925605D9
:102FC00010925705109269050E94F20E60E971E0B7
:102FD00080E090E0FF90EF90DF90CF900C94DC03C6
:102FE0008EE00E943501892B21F080915B058111D3
:102FF000E1CF81E10E943501892BE1F28091200629
:10300000882309F46AC08091200681116DC084E094
:103010000E943501892B71F20E940F04C090540563
:10302000D0905505E0905605F0905705C616D70686
:10303000E806F90608F04CC080916905853009F072
:1030400059C08091100690911106C0904E05D09005
:103050004F05E0905005F0905105C80ED91EE11CB7
:10306000F11CC0924E05D0924F05E0925005F092AF
:10307000510520910E0630910F06A8EEB3E00E9494
:10308000D8296C157D058E059F0570F420910C06DE
:1030900030910D060E94D82960934E0570934F051C
:1030A00080935005909351050E94670E0E940F0473
:1030B0002091120630911306620F731F811D911D1E
:1030C000609354057093550580935605909357056A
:1030D000FF90EF90DF90CF9008958FE00E94350130
:1030E000892B09F090CF66CF80919604882309F44C
:1030F0008ECF60CF0E945717D9CFCF92DF92EF9239
:10310000FF9280917C04811115C180912006882353
:1031100009F46DC08091200681112EC19091160690
:10312000992339F0882309F42CC18091200681115C
:103130002FC18091590581113FC0C0905405D09096
:103140005505E0905605F0905705C114D104E104EF
:10315000F10491F180916705882371F10E940F04B9
:10316000C616D706E806F90638F58091FB058823D0
:1031700019F110926705109254051092550510929E
:103180005605109257058091FE059091FF0590938A
:103190000D0580930C050E94F20E80910B068111A3
:1031A0000E94571760E087E00E945E016AE070E0CD
:1031B00080E090E00E94DC0380911606811161C1DD
:1031C00080917C04882309F44CC18091580581FFCB
:1031D00048C161E086E00E945E018091FE05909109
:1031E000FF05FF90EF90DF90CF900C94C8018FE027
:1031F0000E943501892B09F08DCF81E080937C04FA
:103200008091FB058111C9C080911606882379F150
:103210009091580591FF2BC091E090935905109221
:103220008E0410928F04109290041092910480FFEB
:10323000BAC081E091E0909306018093050180E09F
:1032400091E09093030180930201809120068823EE
:1032500009F4B2C0809120068111C3C0809120067C
:10326000882309F4C3C0809120068111D4C08091C5
:10327000670581115AC08091FB05882309F455C068
:1032800060E070E0CB010E94C60661E087E00E942A
:103290005E0181E0809367058091580590910A0650
:1032A0009111BEC080930806109235051092340526
:1032B000109237051092360510920D0510920C05EC
:1032C00061E470E080E090E00E94DC0380910B06F6
:1032D000882309F4A8C00E94571780916305909134
:1032E0006405A0916505B0916605885B9F4FAF4F5F
:1032F000BF4F8093630590936405A0936505B093D9
:10330000660580915F0590916005A0916105B0917F
:103310006205885B9F4FAF4FBF4F80935F059093CF
:103320006005A0936105B093620580917C048823B9
:1033300009F4FFCE0E940F04209114063091150667
:10334000620F731F811D911D609354057093550585
:10335000809356059093570580912006882309F4A1
:1033600065C080912006882309F4E3CE80919604FD
:10337000882309F461C0DDCE9091960491113DCF70
:10338000CDCE83E00E943501892B09F436CFCDCE16
:1033900080918904811131CFCCCE80915805826013
:1033A0008093580531CF80E091E09093060180939F
:1033B000050181E091E045CFE0910201F091030128
:1033C00080810E943501892B09F044CF0E940F04AF
:1033D000609363057093640580936505909366051B
:1033E0003DCF809196048111F1CF38CFE091050156
:1033F000F091060180810E943501892B09F033CFBD
:103400000E940F0460935F057093600580936105CF
:10341000909362052CCF809189048111F1CF27CF41
:103420008093090641CF0E94F20E57CF8FE00E9491
:103430003501892B09F495CF10927C040E940F046A
:103440002091140630911506620F731F811D911D86
:1034500060935405709355058093560590935705D6
:1034600068CE84E00E943501019759F460E086E05F
:103470000E945E0185E0FF90EF90DF90CF900C946A
:103480002204FF90EF90DF90CF9008950F931F9349
:10349000CF938091540590915505A0915605B09118
:1034A0005705892B8A2B8B2B21F08091FB058111ED
:1034B000CEC08EE00E943501892BB1F18091670565
:1034C000811132C060E070E0CB010E94C60681E04D
:1034D00080936705109235051092340510923705D8
:1034E0001092360510920D0510920C058091FB0587
:1034F000882359F0809158058D7F809358059091CD
:103500000A06911196C08093080661E470E080E09D
:1035100090E00E94DC030E94F20E0E94BA0C80919F
:103520000B0681110E9457178EE00E943501892BEE
:1035300009F08DC080916705882309F488C062E393
:1035400070E080E090E00E94DC038EE00E94350194
:10355000892B09F07CC0C0915805C23008F04DC0DD
:1035600080912106882309F448C061E087E00E9429
:103570005E0161E086E00E945E0182E999E00E94BE
:10358000C80180914E0590914F05A0915005B091D2
:1035900051050091520510915305012E000C220B8C
:1035A000330BCC2309F448C08258904EA844BF4F37
:1035B000BC01CD01600F711F821F931F0091F505A3
:1035C0001091F605012E000C220B330B601B710BC2
:1035D000820B930B0E94C6066AEF70E080E090E0D9
:1035E0000E94DC0360E086E00E945E0185E00E94AC
:1035F000220460E087E00E945E01109267050E944D
:10360000670E0E94BA0C80910B0681110E94571719
:103610008091580581FF1BC08091FE059091FF05A8
:1036200090930D0580930C05CF911F910F910C94F1
:10363000F20E8093090669CF4EE75FE167EB70E019
:10364000481B590B6A0B7B0BCB01BA01BFCFCF9143
:103650001F910F9108950F931F930E949800E0917E
:103660005805209169052130C1F02091F505309170
:10367000F605E13021F02091F7053091F8053093FF
:103680003905209338052091380530913905281BDC
:10369000390B309349052093480520914805309116
:1036A0004905AC01420F531FBA014131F7E25F07F0
:1036B00014F060E177E2603FF8ED7F0714F460EF0B
:1036C00078EDE13089F47093F6056093F505853067
:1036D00091055CF5413F584D8CF02A5031093093EB
:1036E0004905209348050AC07093F8056093F705D3
:1036F00085309105D4F4413F584D7CF781E10E941B
:103700003501892BD9F41092690542E062E370E03B
:1037100088E592E00E9484066DE771E081E00E94F6
:10372000D1081F910F910C94F20E8D3F934034F30A
:10373000403157421CF7265F3F4FD1CF809168053B
:10374000882329F080E10E943501892BE1F681E090
:103750008093690580915805813021F50E94670E9C
:103760004AE06AE275E08091F5059091F6050E94C5
:10377000082962EA72E089E195E00E94302A6AE253
:1037800075E089E195E00E941C2A6BE072E089E116
:1037900095E00E941C2A69E175E081E01F910F917C
:1037A0000C94D108A091F705B091F80524E630E01B
:1037B0000E94012A60547F48884D9B4C60931D01F4
:1037C00070931E0180931F019093200100914E057C
:1037D00010914F0520915005309151056CEE75E127
:1037E00087EB90E0601B710B820B930B0E94C60667
:1037F000A091F705B091F80524E630E00E94012A77
:103800002BE633E040E050E00E948429CA01B90170
:103810002AE04AE255E00E9413296AEA72E089E14F
:1038200095E00E94302A6AE275E089E195E00E9405
:103830001C2A60EB72E0ABCF1F920F920FB60F9273
:1038400011242F933F938F939F93AF93BF938091B6
:103850006B0590916C05A0916D05B0916E0530914E
:103860006A0523E0230F2D3758F50196A11DB11DE0
:1038700020936A0580936B0590936C05A0936D056A
:10388000B0936E0580916F0590917005A0917105C0
:10389000B09172050196A11DB11D80936F059093A3
:1038A0007005A0937105B0937205BF91AF919F9180
:1038B0008F913F912F910F900FBE0F901F901895F1
:1038C00026E8230F0296A11DB11DD2CF1F920F92A1
:1038D0000FB60F9211242F933F934F935F936F93E3
:1038E0007F938F939F93AF93BF93EF93FF938091B9
:1038F000C3059091C405A091C505B091C605892B5B
:103900008A2B8B2BD1F19091BE05E091BF05F091F0
:10391000C0058081892780838091C3059091C4056B
:10392000A091C505B091C605181619061A061B0602
:103930009CF48091C3059091C405A091C505B091F8
:10394000C6050197A109B1098093C3059093C405E9
:10395000A093C505B093C605FF91EF91BF91AF91BC
:103960009F918F917F916F915F914F913F912F9197
:103970000F900FBE0F901F901895809123010E9409
:103980002204EACF1F920F920FB60F9211242F93A9
:103990003F934F935F936F937F938F939F93AF93D7
:1039A000BF93CF93EF93FF9396B1C0910105C0955C
:1039B00080910A058923C82390930105C0FF05C0A3
:1039C000E0911201F09113010995C1FF05C0E0914A
:1039D0000801F09109010995C2FF05C0E0910A01B3
:1039E000F0910B010995C3FF05C0E0910C01F09126
:1039F0000D010995C4FF05C0E0910E01F0910F0182
:103A00000995C5FF05C0E0911001F09111010995DC
:103A1000FF91EF91CF91BF91AF919F918F917F9146
:103A20006F915F914F913F912F910F900FBE0F902B
:103A30001F9018951F920F920FB60F9211242F937B
:103A40003F934F935F936F937F938F939F93AF9326
:103A5000BF93EF93FF938091B900887F803609F47C
:103A60004AC0F0F5883209F4A7C018F5803109F48E
:103A70009BC0B8F4882309F4F9C0883009F494C0D5
:103A8000FF91EF91BF91AF919F918F917F916F9136
:103A90005F914F913F912F910F900FBE0F901F900C
:103AA0001895883109F488C0803251F780939705C2
:103AB00014C0803409F49DC040F48033B9F38833D6
:103AC000F9F68093970585ECB0C0803509F485C080
:103AD000883509F496C0883499F60E947C04D0CFCA
:103AE000883909F48CC038F5883729F050F48836C5
:103AF00011F0803729F683E0809399051092FF0436
:103B000057C0883809F47BC0803919F0803809F033
:103B1000B7CF8091FF04803208F071C0E091FF04BC
:103B200081E08E0F8093FF048091BB00F0E0E152B2
:103B3000FB4F80833DC0803B39F0E0F4803A09F4CC
:103B400079C0883A09F09CCF84E08093990510925F
:103B5000DE041092DD04E0910505F091060509955B
:103B60008091DD0481110FC081E08093DD0410920B
:103B7000BD0409C0803C09F4A6CF883C09F4A3CF5A
:103B8000883B09F07DCFE091DE0481E08E0F8093C9
:103B9000DE04F0E0E354FB4F80818093BB00909102
:103BA000DE048091DD0429C0809174058093BB0000
:103BB00085EC8093BC0064CF90919605809195052B
:103BC000981758F5E091960581E08E0F8093960541
:103BD000F0E0EB58FA4F8081E9CFE091960581E063
:103BE0008E0F809396058091BB00F0E0EB58FA4F62
:103BF000808390919605809195059817C8F285E885
:103C0000D8CFE091960581E08E0F80939605809144
:103C1000BB00F0E0EB58FA4F80838091980581114A
:103C20005CCF81E08093730584EA8093BC0010929E
:103C3000990526CF85EC8093BC0010929905809160
:103C4000FF04803230F4E091FF04F0E0E152FB4FDA
:103C500010826091FF0470E0E0910305F09104058B
:103C60008FED94E009951092FF040ACF109297050A
:103C700034CFEFECF5E01382128288EE93E0A0E0FF
:103C8000B0E084839583A683B78388E291E0918333
:103C90008083E3EFF5E080E181838CED95E0938311
:103CA000828387E296E09583848384E0868388E03C
:103CB000878391E0908722E330E03287218720E2FA
:103CC00033E03487238748E058EB6CE670E04587A3
:103CD00056876787708B418B528B638B748B158AE9
:103CE000168A178A108E2CEB3BE1328F218F2EEE35
:103CF0003BE1348F238F28EE33E0368F258F24EF7E
:103D000031E030A3278F2EE531E032A321A313A2A7
:103D100040EC5FEC6AE670E044A355A366A377A38A
:103D200040EA53E66FE670E040A751A762A773A789
:103D300014A615A616A6EBEDF5E0138212822AE36F
:103D400031E03183208384838FEF858389E086830C
:103D50008AE087838BE080878CE081878DE0828793
:103D60001386148615861686178681E00C9425081E
:103D7000CF93DF93CDB7DEB728970FB6F894DEBFA9
:103D80000FBECDBF789484B5826084BD84B5816058
:103D900084BD85B5826085BD85B5816085BD809116
:103DA0006E00816080936E0010928100809181008E
:103DB0008260809381008091810081608093810086
:103DC000809180008160809380008091B100846048
:103DD0008093B1008091B00081608093B0008091A9
:103DE0007A00846080937A0080917A008260809368
:103DF0007A0080917A00816080937A0080917A00C5
:103E0000806880937A001092C1008DE18093F30561
:103E100065EB72E089E195E00E94302A82E00E9421
:103E2000250881E08093220162E081E10E948C01FB
:103E300062E080E10E948C0162E084E00E948C01DB
:103E400062E08EE00E948C0162E087E00E948C01BB
:103E500064E670E080E090E00E94DC0387E00E946E
:103E60003501892B51F0109214011092FB058AE064
:103E700090E0909315068093140661E087E00E941D
:103E80008C0160E087E00E945E0161E086E00E94B4
:103E90008C0160E086E00E945E0161E085E00E94A6
:103EA0008C0160E085E00E945E0161E082E00E949A
:103EB0008C0160E082E00E945E0190E080E00E9460
:103EC0006E29182F80E10E943501892B09F045C128
:103ED0000E941D0964E670E080E090E00E94DC032F
:103EE0008EE00E94350121E0892B09F020E020932B
:103EF0005B0569E175E080E00E94D10868EE73E03F
:103F000080E090E00E94DC03B3EFEB2EB5E0FB2EE7
:103F100010E000E0C8010E946E29F70181937F0143
:103F20000F5F1F4F0F321105A9F780915B058823A2
:103F3000F1F060E08EE00E948C018BE194E09093C0
:103F400013018093120180910A05816080930A0514
:103F500086B18093010580916C00816080936C0034
:103F6000809168008260809368000E94800D1092AA
:103F700008051092070510929B051092BD0510923E
:103F8000990511E0109398051092730561E082E1A4
:103F90000E945E0161E083E10E945E018091B900B0
:103FA0008E7F8093B9008091B9008D7F8093B90096
:103FB00088E48093B80085E48093BC008FE194E0AE
:103FC000909306058093050580E294E090930405A4
:103FD0008093030560E085E90E94AD0660912101B0
:103FE00083E00E94AD0662E987EB0E94AD06BE0148
:103FF0006F5F7F4F88E0FB0111928A95E9F71A8382
:104000008FE08C8380E88D838AE10E94330560E233
:1040100081EB0E94AD06A091F705B091F80524E66A
:1040200030E00E94012A60547F48884D9B4C609389
:104030001D0170931E0180931F01909320014091F8
:1040400000065091010660910206709103064093AC
:10405000440550934505609346057093470580914C
:10406000040690910506A0910606B091070680937C
:10407000400590934105A0934205B09343052091DC
:104080000A06211175C040934E0550934F05609369
:1040900050057093510580910806809358058091D2
:1040A000580580FF70C08091FA050E9443178091E7
:1040B0005805823040F08091FE059091FF05909365
:1040C0000D0580930C050E94F20E8091F7059091EA
:1040D000F8058732964091F48091F5059091F605A8
:1040E0008C3D954059F463EC72E081E00E94D10868
:1040F00068EE73E080E090E00E94DC0343E06CE354
:1041000070E08091FE059091FF050E94840641E0D9
:1041100064EB70E08091FE059091FF050E9484069B
:10412000F5E02F2E312CAAE08A2E912CA12CB12C57
:1041300011E00BE0E0916905E93008F01EC7F0E0FE
:10414000EC55FF4D0C94FB29C620BB27C227C52781
:10415000C827DB27DE27DB27E12781E10E94350125
:10416000892B09F4B5CE8091F3058113B1CEB2CE7F
:1041700080934E0590934F05A0935005B093510541
:10418000809109068ACF8091F9058FCF80E10E9446
:104190003501892BB9F410936905109368050E94C5
:1041A0001D0964ED72E080E00E94D10865EE72E0C6
:1041B00081E00E94D10860ED77E080E090E00E940D
:1041C000DC0399C48091200681110E945A058091D8
:1041D000670581113CC10E940F0440905F0550901B
:1041E00060056090610570906205C0906305D09095
:1041F0006405E0906505F0906605C414D504E604F6
:10420000F70410F4730162016C197D098E099F098E
:10421000693E73408105910508F419C181E10E944E
:104220003501892B09F4A3C00E940F04C090150525
:10423000D0901605E0901705F09018056C197D09CF
:104240008E099F09609311057093120580931305E1
:104250009093140520911005222309F441C0209168
:104260005E052A30ECF569557240810991096F3578
:10427000794081059105A0F561EF72E081E00E942F
:10428000D10880914E0590914F05A0915005B091B5
:1042900051058093400590934105A0934205B0934A
:1042A00043058093440590934505A0934605B0933C
:1042B00047058091580580930906809308060E945F
:1042C000BA0C42E062E370E088E592E00E94840666
:1042D0006CEB72E080E090E00E94DC0310925E05DF
:1042E0008091110590911205A0911305B0911405CC
:1042F0008D3D9540A105B10554F080915E058093F8
:104300000F058A300CF430C08AE080935E0510926D
:104310001005F0900F05FF2009F45AC05AE0F51679
:1043200009F456C041E062E370E088E592E00E9443
:104330008406EFEFEF0DE13108F04AC0F0E0ED55F3
:10434000FE4D0C94FB293C243F2442245A2485240E
:10435000B024C824E821E821E821DB24E024E52476
:10436000F424FF2408250D2510925E05D0CF6AE0C5
:1043700070E080E090E00E94DC0381E10E94350162
:10438000892B09F0C6CF80915C05882309F43FC1D1
:1043900084E00E943501892B09F439C141E062E3D0
:1043A00070E088E592E00E94840668E672E081E0B1
:1043B0000E94D10864EF71E080E090E00E94DC038D
:1043C00010925C050E94F20E10925E05109210058C
:1043D00084E00E943501892B09F5809167058111E0
:1043E0001DC088E0809369050E940F04685E7340D9
:1043F0008109910960935405709355058093560582
:104400009093570580915D05882341F00E94A8167E
:104410000E94470690934D0580934C0580915E0560
:10442000882311F08A3011F40E94680780915E059C
:1044300081110DC080915D05811109C080915C05DD
:10444000811105C068E672E081E00E94D108809188
:104450005B05882309F4E6C280916705882331F162
:1044600080915A05882311F160E070E0CB010E9431
:10447000C60680915E05811105C06AE174E081E0A5
:104480000E94D10841E06CE370E088EE93E00E9466
:10449000840641E068E770E084EF91E00E948406C2
:1044A0006CE271E080E090E00E94DC030E947D18E5
:1044B0000E94461A8091590581110E942F0980910E
:1044C000630590916405A0916505B0916605C09063
:1044D0005F05D0906005E0906105F0906205C81618
:1044E000D906EA06FB0610F46C017D0180915D059A
:1044F000882309F4BBC2809167058111B7C20E946D
:104500000F046C197D098E099F09683E734081056F
:10451000910508F4F0C20E944706409119019C01E0
:10452000285833414423B9F040913A0550913B0556
:104530005093390540933805B90137FF02C06F5FCA
:104540007F4F75956795461B570B509349054093D0
:10455000480510921901409148055091490537FFCF
:1045600002C02F5F3F4F35952795240F351F30939D
:104570003B0520933A05853091050CF067C2425304
:1045800051092D33F6EF3F070CF06BC2309337051E
:104590002093360580913405909135052817390709
:1045A00009F4A9C20E94670E4AE06AE275E08091B0
:1045B0003A0590913B050E94082968E274E089E180
:1045C00095E00E94302A6AE275E089E195E00E9458
:1045D0001C2A6BE072E089E195E00E941C2A69E1E7
:1045E00075E081E00E94D1088091360590913705F1
:1045F00090933505809334050E94470690934D05AE
:1046000080934C056EE170E080E090E0D8CD84E0CE
:104610000E943501892BB9F441E062E370E080EB40
:1046200094E00E94840610935C050E94BA0C6EE62A
:1046300071E081E00E94D10864EF71E080E090E0D9
:104640000E94DC03C1CE80915D058823B1F00E94F9
:10465000A8160E94470690934D0580934C0541E0B3
:1046600062E370E088E592E00E94840664E670E010
:1046700080E090E00E94DC03ABCE809110058111B8
:10468000C3C0109310050E940F046093150570932A
:104690001605809317059093180541E062E370E0DA
:1046A00080EB94E00E94840610920F0580915E05D5
:1046B0008F5F82310CF038C080935E0580915E057B
:1046C0008850823010F410935E0580915B05811153
:1046D0000EC080915E05823019F484E080935E05FF
:1046E00080915E058C3019F46DE060935E05E09179
:1046F0005E05E150E13100F50E2E000CFF0BED5789
:10470000FC4D0C94FB299723DD23E023E323E623D0
:10471000E923EC239C239C239C23EF23F223F52302
:10472000F823FB23FE23012400935E05C7CF6BEF24
:1047300072E081E00E94D1080E940F04C09015052C
:10474000D0901605E0901705F09018056C197D09BA
:104750008E099F09693B7B408105910528F0809176
:104760005E058A300CF478C00E940F046C197D0934
:104770008E099F096D3D75408105910508F4C9CDED
:1047800080915E058B300CF4C4CD43E066E970E0A7
:1047900080EB94E00E9484064FEF40935E051092F8
:1047A000100560ED73E081E00E94D1086CEB72E0CF
:1047B00080E090E00E94DC03ACCD65E073E0B9CF0F
:1047C0006CE073E0B6CF69E173E0B3CF65E273E00C
:1047D000B0CF65E373E0ADCF65E473E0AACF66E5E3
:1047E00073E0A7CF66E673E0A4CF64E773E0A1CFE0
:1047F00064E873E09ECF64E973E09BCF64EA73E002
:1048000098CF64EB73E095CF0E940F04C09015051C
:10481000D0901605E0901705F09018056C197D09E9
:104820008E099F09693572408105910508F484CF8E
:104830000E940F046C197D098E099F096032734034
:104840008105910508F078CF80915E058A300CF0E3
:1048500073CF65EC73E06DCF43E066E970E080EB09
:1048600094E00E9484066DE771E081E00E94D10827
:104870008AE080935E054DCD0E945717A9CD0E9416
:10488000A816A6CD80910B06812780930B068091F8
:104890005D05882361F010925D0510923505109238
:1048A000340510923705109236050E94F20E0E94D0
:1048B000BA0C8ECD8091580590915B059923D9F063
:1048C0009091FB05911117C08F5F837080935805FD
:1048D0008091580581FF11C02091FE053091FF05A0
:1048E00030930D0520930C0580FF0CC08091FA05D4
:1048F0000E9443176DCD8127E9CF10920D051092CC
:104900000C05F2CF8091F905F3CF85E0809369051E
:104910000E940F042091120630911306620F731F3C
:10492000811D911D60935405709355058093560524
:104930009093570520910C0630910D06A8EEB3E038
:104940000E94D82960934E0570934F0580935005BF
:104950009093510560EE73E081E00E94D10838CD5C
:1049600067E0609369050E940F0420911206309160
:104970001306620F731F811D911D60935405709380
:10498000550580935605909357056EEE73E0E4CF7E
:10499000809121068127809321066DEF73E08111BC
:1049A00002C06BE074E081E00E94D10868EE73E021
:1049B00080E090E05FCE10930E050E94180F08CDA6
:1049C00010930E050E94EE1103CD10920D0510926A
:1049D0000C05109258050E94670E8091F9050E94FF
:1049E00043170E942B1BF4CC10920D0510920C055E
:1049F000109358050E94670E8091FA05F0CF10922F
:104A000058058091F9050E9443170E94C416E0CC16
:104A1000109358058091FA05F6CF10930E050E9469
:104A2000A214D6CC80915A05882309F448CD60E0C1
:104A300070E0CB010E94C60680915E0581113FCDDA
:104A40006AE174E081E00E94D10839CD8D3E974241
:104A50000CF49CCD243C89E038070CF097CD4E5CDB
:104A60005F4F509349054093480590CD0E940F0435
:104A7000AB01BC014C195D096E097F0980911406D8
:104A800090911506B0E0A0E084179507A607B70738
:104A900090F50E949800DC0120EA36E841E050E001
:104AA0000E94AE2926EF37E240E050E00E948429C0
:104AB00080916705882339F180915E058A30DCF4A6
:104AC00080914C0590914D05281B390B37FF03C091
:104AD000319521953109233331056CF080915C05C6
:104AE000811109C06EE671E081E00E94D1080E9448
:104AF000F20E10931901E0E0F0E0EF2B09F41ACB6D
:104B00000E94000015CB80915C058111F4CFE090EC
:104B10004C05F0904D052E193F092D5E3F4F273271
:104B2000310508F075C08091000690910106A091B2
:104B30000206B091030640904405509045056090F0
:104B400046057090470584159505A605B70569F0DB
:104B5000A3019201281B390B4A0B5B0BDA01C90137
:104B6000853F9140A105B105F0F4409104065091B4
:104B700005066091060670910706809140059091A8
:104B80004105A0914205B0914305481759076A07AE
:104B90007B07A1F1841B950BA60BB70B853F9140BA
:104BA000A105B10558F10E940F0420913C053091F8
:104BB0003D0540913E0550913F05621B730B840BF0
:104BC000950B613375478105910510F14092000600
:104BD0005092010660920206709203068091400591
:104BE00090914105A0914205B09143058093040640
:104BF00090930506A0930606B09307060E940F0443
:104C000060933C0570933D0580933E0590933F056E
:104C10000E944706009709F09BC0409017065090ED
:104C200018066090190670901A0640914E05509132
:104C30004F05609150057091510544165506660662
:104C4000770609F430C14416550666067706D8F58E
:104C50008091150190911601A0911701B091180152
:104C60002091FC053091FD052931310508F06BC01C
:104C7000885E9340A109B1098093150190931601B4
:104C8000A0931701B093180180911501909116011E
:104C9000A0911701B091180180934E0590934F0594
:104CA000A0935005B093510580915E058A302CF495
:104CB0006DE274E081E00E94D1086CE271E080E076
:104CC00090E00E94DC038091170690911806A09155
:104CD0001906B0911A0640914E0550914F0560910A
:104CE000500570915105481759076A077B0780F4F2
:104CF00080934E0590934F05A0935005B0935105B6
:104D00008093150190931601A0931701B093180199
:104D10000E94670E10924D0510924C0580914E0531
:104D200090914F05A0915005B091510520910A0630
:104D3000211118C18093440590934505A093460521
:104D4000B0934705D8CE80519742A109B10994CFBD
:104D5000803167E2960709F0A6C040901B0650908C
:104D60001C0660901D0670901E0640914E055091E5
:104D70004F05609150057091510544165506660621
:104D8000770609F490C0441555056605770508F0C7
:104D900047C02091FC053091FD058091150190914F
:104DA0001601A0911701B09118012931310508F0C1
:104DB00075C088519C4FAF4FBF4F809315019093A2
:104DC0001601A0931701B0931801A0E1B7E20E9469
:104DD000D829A50194010E94B629809115019091CE
:104DE0001601A0911701B0911801820F931FA41F03
:104DF000B51F80934E0590934F05A0935005B09337
:104E0000510580915E058A302CF465E374E081E001
:104E10000E94D1086CE271E080E090E00E94DC0327
:104E2000C0901B06D0901C06E0901D06F0901E0658
:104E300080914E0590914F05A0915005B09151057C
:104E4000C816D906EA06FB0600F52091FC0530914C
:104E5000FD05A8EEB3E00E94D829A7019601261B04
:104E6000370B480B590BDA01C90180931501909358
:104E70001601A0931701B0931801C0924E05D0926D
:104E80004F05E0925005F09251050E94670E40E1F7
:104E900057E250934D0540934C0540CF805F984DAD
:104EA000AF4FBF4F8ACF9C012E193F0937FF03C078
:104EB000319521953109253031050CF42FCFE80EBD
:104EC000F91EF7FE03C05FEFE51AF50AD701B595A5
:104ED000A795B0934D05A0934C052091FC0530910A
:104EE000FD050E94012AA50194010E94B629809126
:104EF000150190911601A0911701B0911801BA0106
:104F0000A901480F591F6A1F7B1F809117069091B6
:104F10001806A0911906B0911A06481759076A0792
:104F20007B0778F080911B0690911C06A0911D06CE
:104F3000B0911E06481759076A077B0710F4DB017A
:104F4000CA0180934E0590934F05A0935005B093EE
:104F500051050E94670E6AE070E080E090E00E94D8
:104F6000DC03DCCE8093400590934105A09342057D
:104F7000B0934305C0CD0E942B1B64E670E080E037
:104F800090E01DC90E94C416F8CF0E94A214F5CF6C
:104F90000E94EE118091200681110E945A050E9404
:104FA0007D180E94461A80915905882309F4A3CDE3
:104FB0000E942F09A0CD0E94C717DFCF0E94180FB3
:104FC000DCCF8091580581FF31C00E940F04C09052
:104FD0005405D0905505E0905605F09057056C1992
:104FE0007D098E099F09693E734081059105F0F0A6
:104FF0008091FE059091FF050E94C8010E940F0458
:105000006C197D098E099F096F37744081059105E0
:1050100068F085E00E9422040E940F04609354050A
:105020007093550580935605909357050E94470647
:105030007C0184E00E943501892B49F48091670549
:10504000811105C080915C05882309F442C010934A
:1050500019011092540510925505109256051092A0
:10506000570585E00E94220410926905809152053F
:1050700090915305092E000CAA0BBB0B40914E05D5
:1050800050914F056091500570915105840F951F07
:10509000A61FB71F80934E0590934F05A093500510
:1050A000B093510510925305109252050E94F20ED2
:1050B0000E94470690934D0580934C0580915E05B4
:1050C0008A3009F05ACF6DE771E081E00E94D10883
:1050D00054CF80911901882399F0109219012FE083
:1050E00037E230934B0520934A0588E893E18E1907
:1050F0009F09B1010E94E729709349056093480513
:105100002091480530914905C70188589341B10164
:105110000E94E729620F731F709353056093520535
:105120004AE0E416F1040CF044C069315CEF750705
:105130000CF1C0904E05D0904F05E0905005F090D6
:105140005105CB01072E000CAA0BBB0B8C0D9D1D2E
:10515000AE1DBF1DC0901706D0901806E09019062E
:10516000F0901A062A503109C816D906EA06FB063D
:1051700008F449C080914A0590914B05681779075A
:1051800021F00E94670E0E94BA0C8091580566E4D7
:1051900074E081FD02C06DE474E081E00E94D108FA
:1051A000809152059091530590934B0580934A0549
:1051B000E4CE8DEEE81687E2F806E4F2683E93E06E
:1051C0007907C4F6C0904E05D0904F05E090500589
:1051D000F0905105CB01072E000CAA0BBB0B8C0DD8
:1051E0009D1DAE1DBF1DC0901B06D0901C06E090FB
:1051F0001D06F0901E068C159D05AE05BF0508F036
:10520000B9CF265F3F4F3093490520934805B2CF71
:10521000BB274A3031F4992322F4BDE29095819561
:105220009F4F0C944529BB272A3051F4992342F40F
:10523000BDE290958095709561957F4F8F4F9F4F00
:105240000C942329BB27FA01A62F6217710581054B
:105250009105330B30FB66F0AA27660F771F881F76
:10526000991FAA1FA21710F0A21B63953850A9F727
:10527000A05DAA3308F0A95DA19336F7B111B193EF
:105280001082CA010C945E29BB27FB015527AA276F
:10529000880F991FAA1FA41710F0A41B83955051C3
:1052A000B9F7A05DAA3308F0A95DA193009779F73B
:1052B000B111B1931192CB010C945E29DC01FC0178
:1052C000672F71917723E1F7329704C07C916D933A
:1052D00070836291AE17BF07C8F30895F999FECFA6
:1052E00092BD81BDF89A992780B50895262FF99926
:1052F000FECF1FBA92BD81BD20BD0FB6F894FA9AB9
:10530000F99A0FBE01960895052E97FB1EF400949E
:105310000E949B2957FD07D00E94B62907FC03D0A5
:105320004EF40C949B2950954095309521953F4F14
:105330004F4F5F4F089590958095709561957F4F81
:105340008F4F9F4F08950E94D829A59F900DB49F1D
:10535000900DA49F800D911D11240895B7FF0C940A
:10536000A3290E94A329821B930B0895A1E21A2E60
:10537000AA1BBB1BFD010DC0AA1FBB1FEE1FFF1FF9
:10538000A217B307E407F50720F0A21BB30BE40B49
:10539000F50B661F771F881F991F1A9469F7609590
:1053A0007095809590959B01AC01BD01CF0108954A
:1053B000A29FB001B39FC001A39F700D811D112456
:1053C000911DB29F700D811D1124911D089597FBB1
:1053D000072E16F4009407D077FD09D00E94082A02
:1053E00007FC05D03EF4909581959F4F08957095E8
:1053F00061957F4F0895EE0FFF1F0590F491E02D0A
:1054000009940E94D829B7FF0895821B930B089531
:10541000AA1BBB1B51E107C0AA1FBB1FA617B707DA
:1054200010F0A61BB70B881F991F5A95A9F78095F6
:105430009095BC01CD010895FB01DC010D90002089
:10544000E9F7119701900D920020E1F70895FB0113
:10545000DC018D91019080190110D9F3990B089509
:10546000FB01DC0101900D920020E1F70895FB01A2
:10547000DC010D900020E9F711974150504028F0D1
:10548000019000200D92C9F708951C920895F89498
:02549000FFCF4C
:105492000F0300010101010121042104210421045F
:1054A200210421040160566C0001010101C0702732
:1054B20034FF01FF000000000405D7045705AD04C6
:1054C200D004BD04AE0400000000CB084E04570512
:1054D2007B046C6F6164696E67207374616E6461D2
:1054E20072640073657474696E67732E2E2E0043A6
:1054F200572D737065656420002057504D00646914
:10550200616C206973206C6F636B6564002D2D2DB7
:105512002053455454494E4753202D2D2D004120F0
:10552200004220002043574C00204357550020548E
:10553200580020535000746F7563682073656E7352
:105542006F7273006E6F7420646574656374656452
:1055520000746F756368206B65792063616C6962A2
:10556200720044495420002C2044414820002075F8
:105572007300746F756368206B65796572204F469E
:1055820046006C6F7765722000206B487A00757058
:10559200706572200073746570200020487A0020C4
:1055A2006D73004B65793A200073747261696768A4
:1055B20074007265762E20706164646C6500726599
:1055C200762E20627567004175746F2D737061636A
:1055D200653A2000546F7563682073656E736F724D
:1055E2000073656E73697469766974792000536516
:1055F2006D692D51534B3A200051534B2064656C19
:105602006179200073696465746F6E6520006D694D
:105612006E20006D61782000706F74207370616E6F
:1056220020006472697665206C6576656C20006D79
:1056320041006F66667365742000636F72722000AA
:105642002070706D0052616475696E6F2076312E24
:1056520032390056464F20756E63616C6962726121
:105662007465640043616C6962726174696E673A61
:105672002053657400746F207A65726F626561747D
:105682000056464F20413D42202100537761702051
:1056920056464F7300524954204F4E0053504C49C6
:1056A20054204F4E2F4F464600537769746368204B
:1056B2006D6F646500537461727420667265712047
:1056C2007363616E004D6F6E69746F722056464F40
:1056D20020412F4200526F67657242656570204F0C
:1056E2004E2F4F464600536574207363616E2070DF
:1056F2006172616D7300536574204357207061724B
:10570200616D73004C53422063616C696272617413
:10571200696F6E005553422063616C6962726174F5
:10572200696F6E0056464F206472697665202D209F
:105732004C53420056464F206472697665202D20F4
:10574200555342005365742074756E696E672072FA
:10575200616E67650052657365742056464F73002B
:10576200202D2D2D204E4F524D414C202D2D2D0000
:1057720066726571207363616E6E696E6700412F98
:1057820042206D6F6E69746F72696E6700526F6747
:1057920065722042656570204F4E00526F676572D8
:1057A2002042656570204F4646006F7574206F6613
:1057B2002062616E6421210052495420003C3C3C2D
:1057C2003C3C3C3C002020202020202020203E3E4B
:1057D2003E3E3E3E3E0053504F54202B2046494E03
:0857E200452054554E4500001E
:107800000C94343C0C94513C0C94513C0C94513CE1
:107810000C94513C0C94513C0C94513C0C94513CB4
:107820000C94513C0C94513C0C94513C0C94513CA4
:107830000C94513C0C94513C0C94513C0C94513C94
:107840000C94513C0C94513C0C94513C0C94513C84
:107850000C94513C0C94513C0C94513C0C94513C74
:107860000C94513C0C94513C11241FBECFEFD8E036
:10787000DEBFCDBF11E0A0E0B1E0ECE9FFE702C060
:1078800005900D92A230B107D9F712E0A2E0B1E065
:1078900001C01D92AD30B107E1F70E942D3D0C945F
:1078A000CC3F0C94003C982F959595959595959582
:1078B000905D8F708A307CF0282F295A8091C0000B
:1078C00085FFFCCF9093C6008091C00085FFFCCF60
:1078D0002093C6000895282F205DF0CF982F809127
:1078E000C00085FFFCCF9093C6000895EF92FF92F1
:1078F0000F931F93EE24FF2487018091C00087FD22
:1079000017C00894E11CF11C011D111D81E4E8164B
:1079100082E4F8068FE0080780E0180770F3E09132
:107920000401F091050109958091C00087FFE9CF1E
:107930008091C6001F910F91FF90EF9008950E94D3
:10794000763C982F8091C00085FFFCCF9093C600B5
:1079500091362CF490330CF09053892F089597555D
:10796000892F08951F930E949F3C182F0E949F3CCF
:107970001295107F810F1F9108951F93182F882350
:1079800021F00E94763C1150E1F71F9108951F935A
:10799000182F0E94763C803249F0809103018F5F5E
:1079A000809303018530C1F01F9108958091C0003C
:1079B00085FFFCCF84E18093C6008091C00085FFE5
:1079C000FCCF1093C6008091C00085FFFCCF80E102
:1079D0008093C6001F910895E0910401F091050184
:1079E00009951F9108950E94763C803241F0809164
:1079F00003018F5F80930301853081F008958091AA
:107A0000C00085FFFCCF84E18093C6008091C00058
:107A100085FFFCCF80E18093C6000895E0910401CA
:107A2000F09105010995089540E951E08823A1F0FE
:107A30002D9A28EE33E0FA013197F1F721503040CA
:107A4000D1F72D9828EE33E0FA013197F1F7215064
:107A50003040D1F7815061F708953F924F925F9285
:107A60006F927F928F929F92AF92BF92CF92DF924E
:107A7000EF92FF920F931F93CF93DF93000080E16B
:107A80008093C4001092C50088E18093C10086E015
:107A90008093C2005098589A259A81E00E94143D24
:107AA00024E1F22E9EE1E92E85E9D82E0FE0C02ECA
:107AB00010E1B12EAA24A394B1E49B2EA6E58A2E50
:107AC000F2E57F2EE0E26E2E79E4572E63E5462E36
:107AD00050E5352E0E94763C8033B1F18133B9F107
:107AE000803409F46FC0813409F476C0823409F41B
